:020000040800F2
:100000000050002035300008991400089B140008A7
:100010009D1400089F140008A114000800000000AF
:10002000000000000000000000000000A314000811
:10003000A514000800000000A7140008A914000877
:100040007D3000087D3000087D3000087D300008DC
:100050007D3000087D3000087D3000087D300008CC
:100060007D3000087D3000087D300008AD140008A8
:100070007D3000087D3000087D3000087D300008AC
:100080007D3000087D3000087D3000087D3000089C
:10009000B9140008C5140008C91400087D30000810
:1000A0007D3000087D3000087D3000087D3000087C
:1000B000CD1400087D300008D91400087D300008F8
:1000C0007D3000087D3000087D3000087D3000085C
:1000D0007D300008E5140008F1140008FD14000844
:1000E000091500087D3000087D3000080000000080
:1000F0000000000000000000000000000000000000
:0C01000000000000000000005FF808F1A3
:1001100010B5054C237833B9044B13B10448AFF341
:1001200000800123237010BD780200200000000031
:10013000007E000808B5034B1BB103490348AFF329
:10014000008008BD000000007C020020007E000846
:10015000034613F8012B002AFBD1181A0138704707
:1001600081F0004102E000BF83F0004330B54FEA68
:1001700041044FEA430594EA050F08BF90EA020FD5
:100180001FBF54EA000C55EA020C7FEA645C7FEA68
:10019000655C00F0E2804FEA5454D4EB5555B8BF8B
:1001A0006D420CDD2C4480EA020281EA030382EAFC
:1001B000000083EA010180EA020281EA0303362D8E
:1001C00088BF30BD11F0004F4FEA01314FF4801C61
:1001D0004CEA113102D0404261EB410113F0004F73
:1001E0004FEA03334CEA133302D0524263EB43032A
:1001F00094EA050F00F0A780A4F10104D5F1200EC8
:100200000DDB02FA0EFC22FA05F2801841F1000122
:1002100003FA0EF2801843FA05F359410EE0A5F1F6
:1002200020050EF1200E012A03FA0EFC28BF4CF027
:10023000020C43FA05F3C01851EBE37101F00045DD
:1002400007D54FF0000EDCF1000C7EEB00006EEBEA
:100250000101B1F5801F1BD3B1F5001F0CD3490874
:100260005FEA30004FEA3C0C04F101044FEA4452CB
:1002700012F5800F80F09A80BCF1004F08BF5FEA52
:10028000500C50F1000041EB045141EA050130BD32
:100290005FEA4C0C404141EB0101013C28BFB1F544
:1002A000801FE9D291F0000F04BF01460020B1FA8F
:1002B00081F308BF2033A3F10B03B3F120020CDA62
:1002C0000C3208DD02F1140CC2F10C0201FA0CF040
:1002D00021FA02F10CE002F11402D8BFC2F1200CA5
:1002E00001FA02F120FA0CFCDCBF41EA0C0190405B
:1002F000E41AA2BF01EB0451294330BD6FEA0404A4
:100300001F3C1CDA0C340EDC04F11404C4F120028E
:1003100020FA04F001FA02F340EA030021FA04F3A0
:1003200045EA030130BDC4F10C04C4F1200220FAF7
:1003300002F001FA04F340EA0300294630BD21FA35
:1003400004F0294630BD94F0000F83F4801306BFFB
:1003500081F480110134013D4EE77FEA645C18BFEF
:100360007FEA655C29D094EA050F08BF90EA020F86
:1003700005D054EA000C04BF1946104630BD91EA7E
:10038000030F1EBF0021002030BD5FEA545C05D181
:100390004000494128BF41F0004130BD14F58004C0
:1003A0003CBF01F5801130BD01F0004545F0FE4134
:1003B00041F470014FF0000030BD7FEA645C1ABF69
:1003C000194610467FEA655C1CBF0B46024650EAA0
:1003D000013406BF52EA033591EA030F41F40021CC
:1003E00030BD00BF90F0000F04BF0021704730B552
:1003F0004FF4806404F132044FF000054FF0000127
:1004000050E700BF90F0000F04BF0021704730B5E7
:100410004FF4806404F1320410F0004548BF4042BC
:100420004FF000013EE700BF42004FEAE2014FEA11
:1004300031014FEA02701FBF12F07F4393F07F4FEC
:1004400081F06051704732F07F4208BF704793F0EF
:100450007F4F04BF41F40021704730B54FF4607402
:1004600001F0004521F000411CE700BF50EA010205
:1004700008BF704730B54FF000050AE050EA0102AE
:1004800008BF704730B511F0004502D5404261EB1E
:1004900041014FF4806404F132045FEA915C3FF45F
:1004A000D8AE4FF003025FEADC0C18BF03325FEAFC
:1004B000DC0C18BF033202EBDC02C2F1200300FAAD
:1004C00003FC20FA02F001FA03FE40EA0E0021FAD2
:1004D00002F11444BDE600BF70B54FF0FF0C4CF4C0
:1004E000E06C1CEA11541DBF1CEA135594EA0C0F72
:1004F00095EA0C0F00F0DEF82C4481EA030621EAAD
:100500004C5123EA4C5350EA013518BF52EA0335E7
:1005100041F4801143F4801338D0A0FB02CE4FF099
:100520000005E1FB02E506F00042E0FB03E54FF0C9
:100530000006E1FB03569CF0000F18BF4EF0010EC1
:10054000A4F1FF04B6F5007F64F5407404D25FEABD
:100550004E0E6D4146EB060642EAC62141EA555170
:100560004FEAC52040EA5E504FEACE2EB4F1FD0CB2
:1005700088BFBCF5E06F1ED8BEF1004F08BF5FEA30
:10058000500E50F1000041EB045170BD06F00046E2
:1005900046EA010140EA020081EA0301B4EB5C048F
:1005A000C2BFD4EB0C0541EA045170BD41F4801187
:1005B0004FF0000E013C00F3AB8014F1360FDEBFAC
:1005C000002001F0004170BDC4F10004203C35DA88
:1005D0000C341BDC04F11404C4F1200500FA05F30B
:1005E00020FA04F001FA05F240EA020001F00042AC
:1005F00021F0004110EBD37021FA04F642EB060122
:100600005EEA430E08BF20EAD37070BDC4F10C044B
:10061000C4F1200500FA04F320FA05F001FA04F20F
:1006200040EA020001F0004110EBD37041F10001FB
:100630005EEA430E08BF20EAD37070BDC4F1200506
:1006400000FA05F24EEA020E20FA04F301FA05F26E
:1006500043EA020321FA04F001F0004121FA04F216
:1006600020EA020000EBD3705EEA430E08BF20EAE6
:10067000D37070BD94F0000F0FD101F00046400020
:1006800041EB010111F4801F08BF013CF7D041EAA2
:10069000060195F0000F18BF704703F000465200A6
:1006A00043EB030313F4801F08BF013DF7D043EA77
:1006B0000603704794EA0C0F0CEA135518BF95EA2D
:1006C0000C0F0CD050EA410618BF52EA4306D1D1B4
:1006D00081EA030101F000414FF0000070BD50EAD3
:1006E000410606BF1046194652EA430619D094EA5D
:1006F0000C0F02D150EA013613D195EA0C0F05D147
:1007000052EA03361CBF104619460AD181EA03019A
:1007100001F0004141F0FE4141F470014FF0000052
:1007200070BD41F0FE4141F4780170BD70B54FF0ED
:10073000FF0C4CF4E06C1CEA11541DBF1CEA13556D
:1007400094EA0C0F95EA0C0F00F0A7F8A4EB05044F
:1007500081EA030E52EA03354FEA013100F0888046
:100760004FEA03334FF0805545EA131343EA12630F
:100770004FEA022245EA111545EA10654FEA0026C4
:100780000EF000419D4208BF964244F1FD0404F57D
:10079000407402D25B084FEA3202B61A65EB0305D9
:1007A0005B084FEA32024FF480104FF4002CB6EB96
:1007B000020E75EB030E22BFB61A754640EA0C0016
:1007C0005B084FEA3202B6EB020E75EB030E22BF56
:1007D000B61A754640EA5C005B084FEA3202B6EB97
:1007E000020E75EB030E22BFB61A754640EA9C0056
:1007F0005B084FEA3202B6EB020E75EB030E22BF26
:10080000B61A754640EADC0055EA060E18D04FEAE3
:10081000051545EA16754FEA06164FEAC30343EA83
:1008200052734FEAC2025FEA1C1CC0D111F4801F50
:100830000BD141EA00014FF000004FF0004CB6E749
:1008400011F4801F04BF01430020B4F1FD0C88BFE8
:10085000BCF5E06F3FF6AFAEB5EB030C04BFB6EBF3
:10086000020C5FEA500C50F1000041EB045170BDE6
:100870000EF0004E4EEA113114EB5C04C2BFD4EB13
:100880000C0541EA045170BD41F480114FF0000E97
:10089000013C90E645EA060E8DE60CEA135594EA13
:1008A0000C0F08BF95EA0C0F3FF43BAF94EA0C0F16
:1008B0000AD150EA01347FF434AF95EA0C0F7FF48B
:1008C00025AF104619462CE795EA0C0F06D152EADF
:1008D00003353FF4FDAE1046194622E750EA4106C3
:1008E00018BF52EA43067FF4C5AE50EA41047FF4D4
:1008F0000DAF52EA43057FF4EBAE12E74FF0FF3C39
:1009000006E000BF4FF0010C02E000BF4FF0010C09
:100910004DF804CD4FEA410C7FEA6C5C4FEA430C82
:1009200018BF7FEA6C5C1BD001B050EA410C0CBFD1
:1009300052EA430C91EA030F02BF90EA020F002033
:10094000704710F1000F91EA030F58BF994208BF9A
:1009500090422CBFD8176FEAE37040F00100704757
:100960004FEA410C7FEA6C5C02D150EA013C07D1AE
:100970004FEA430C7FEA6C5CD6D152EA033CD3D0F9
:100980005DF8040B704700BF8446104662468C46F3
:100990001946634600E000BF01B5FFF7B7FF002826
:1009A00048BF10F1000F01BD4DF808EDFFF7F4FF4F
:1009B0000CBF012000205DF808FB00BF4DF808EDDA
:1009C000FFF7EAFF34BF012000205DF808FB00BFFD
:1009D0004DF808EDFFF7E0FF94BF012000205DF81F
:1009E00008FB00BF4DF808EDFFF7CEFF94BF0120D4
:1009F00000205DF808FB00BF4DF808EDFFF7C4FFCD
:100A000034BF012000205DF808FB00BF4FEA410C15
:100A10007FEA6C5C02D150EA013C0AD14FEA430CF8
:100A20007FEA6C5C02D152EA033C02D14FF0000035
:100A300070474FF0010070474FEA410212F5001273
:100A400015D211D56FF47873B3EB625212D94FEA15
:100A5000C12343F0004343EA505311F0004F23FAFF
:100A600002F018BF404270474FF00000704750EA54
:100A7000013005D111F0004008BF6FF00040704711
:100A80004FF00000704700BF80F0004002E000BF60
:100A900081F0004142001FBF5FEA410392EA030F69
:100AA0007FEA226C7FEA236C6AD04FEA1262D2EBB3
:100AB0001363C1BFD218414048404140B8BF5B42B8
:100AC000192B88BF704710F0004F40F4000020F051
:100AD0007F4018BF404211F0004F41F4000121F067
:100AE0007F4118BF494292EA030F3FD0A2F10102B1
:100AF00041FA03FC10EB0C00C3F1200301FA03F1EF
:100B000000F0004302D5494260EB4000B0F5000F11
:100B100013D3B0F1807F06D340084FEA310102F1D0
:100B20000102FE2A51D2B1F1004F40EBC25008BF82
:100B300020F0010040EA03007047490040EB00004C
:100B4000013A28BFB0F5000FEDD2B0FA80FCACF14D
:100B5000080CB2EB0C0200FA0CF0AABF00EBC2507A
:100B600052421843BCBFD0401843704792F0000F68
:100B700081F4000106BF80F400000132013BB5E7BB
:100B80004FEA41037FEA226C18BF7FEA236C21D031
:100B900092EA030F04D092F0000F08BF0846704796
:100BA00090EA010F1CBF0020704712F07F4F04D164
:100BB000400028BF40F00040704712F100723CBF77
:100BC00000F50000704700F0004343F0FE4040F4A1
:100BD000000070477FEA226216BF08467FEA23635F
:100BE0000146420206BF5FEA412390EA010F40F44A
:100BF000800070474FF0000304E000BF10F0004396
:100C000048BF40425FEA000C08BF704743F096437C
:100C100001464FF000001CE050EA010208BF704797
:100C20004FF000030AE000BF50EA010208BF70471E
:100C300011F0004302D5404261EB41015FEA010C33
:100C400002BF84460146002043F0B64308BFA3F12B
:100C50008053A3F50003BCFA8CF2083AA3EBC2530D
:100C600010DB01FA02FC634400FA02FCC2F120022C
:100C7000BCF1004F20FA02F243EB020008BF20F063
:100C80000100704702F1200201FA02FCC2F12002C9
:100C900050EA4C0021FA02F243EB020008BF20EABE
:100CA000DC7070474FF0FF0C1CEAD0521EBF1CEAEC
:100CB000D15392EA0C0F93EA0C0F6FD01A4480EADA
:100CC000010C400218BF5FEA41211ED04FF00063C3
:100CD00043EA501043EA5111A0FB01310CF00040EF
:100CE000B1F5000F3EBF490041EAD3715B0040EA15
:100CF000010062F17F02FD2A1DD8B3F1004F40EBE5
:100D0000C25008BF20F00100704790F0000F0CF0B7
:100D1000004C08BF49024CEA502040EA51207F3A7B
:100D2000C2BFD2F1FF0340EAC250704740F4000056
:100D30004FF00003013A5DDC12F1190FDCBF00F047
:100D400000407047C2F10002410021FA02F1C2F1F5
:100D5000200200FA02FC5FEA310040F1000053EA91
:100D60004C0308BF20EADC70704792F0000F00F0DF
:100D7000004C02BF400010F4000F013AF9D040EAE5
:100D80000C0093F0000F01F0004C02BF490011F479
:100D9000000F013BF9D041EA0C018FE70CEAD15377
:100DA00092EA0C0F18BF93EA0C0F0AD030F0004CF7
:100DB00018BF31F0004CD8D180EA010000F00040AB
:100DC000704790F0000F17BF90F0004F084691F069
:100DD000000F91F0004F14D092EA0C0F01D14202A3
:100DE0000FD193EA0C0F03D14B0218BF084608D16C
:100DF00080EA010000F0004040F0FE4040F40000B6
:100E0000704740F0FE4040F4400070474FF0FF0C48
:100E10001CEAD0521EBF1CEAD15392EA0C0F93EA8F
:100E20000C0F69D0A2EB030280EA010C49024FEAE1
:100E3000402037D04FF0805343EA111143EA10139A
:100E40000CF000408B4238BF5B0042F17D024FF452
:100E5000000C8B4224BF5B1A40EA0C00B3EB510F2D
:100E600024BFA3EB510340EA5C00B3EB910F24BF16
:100E7000A3EB910340EA9C00B3EBD10F24BFA3EB9B
:100E8000D10340EADC001B0118BF5FEA1C1CE0D163
:100E9000FD2A3FF650AF8B4240EBC25008BF20F016
:100EA000010070470CF0004C4CEA50207F32C2BF6A
:100EB000D2F1FF0340EAC250704740F400004FF007
:100EC0000003013A37E792F0000F00F0004C02BF38
:100ED000400010F4000F013AF9D040EA0C0093F002
:100EE000000F01F0004C02BF490011F4000F013B5C
:100EF000F9D041EA0C0195E70CEAD15392EA0C0FC4
:100F000008D142027FF47DAF93EA0C0F7FF470AFFB
:100F1000084676E793EA0C0F04D14B023FF44CAF3E
:100F200008466EE730F0004C18BF31F0004CCAD1D3
:100F300030F000427FF45CAF31F000437FF43CAF0F
:100F40005FE700BF4FF0FF3C06E000BF4FF0010C31
:100F500002E000BF4FF0010C4DF804CD4FEA400213
:100F60004FEA41037FEA226C18BF7FEA236C11D05D
:100F700001B052EA530C18BF90EA010F58BFB2EB10
:100F8000030088BFC81738BF6FEAE17018BF40F090
:100F9000010070477FEA226C02D15FEA402C05D144
:100FA0007FEA236CE4D15FEA412CE1D05DF8040BC9
:100FB000704700BF844608466146FFE70FB5FFF75C
:100FC000C9FF002848BF10F1000F0FBD4DF808ED14
:100FD000FFF7F4FF0CBF012000205DF808FB00BF05
:100FE0004DF808EDFFF7EAFF34BF012000205DF85F
:100FF00008FB00BF4DF808EDFFF7E0FF94BF0120AC
:1010000000205DF808FB00BF4DF808EDFFF7D2FFA8
:1010100094BF012000205DF808FB00BF4DF808EDEB
:10102000FFF7C8FF34BF012000205DF808FB00BFB8
:101030004FEA4002B2F1FE4F0FD34FF09E03B3EBE5
:1010400012620DD94FEA002343F0004310F0004F25
:1010500023FA02F018BF404270474FF0000070477B
:1010600012F1610F01D1420205D110F0004008BF1A
:101070006FF0004070474FF00000704730B51148E6
:10108000114B85B00024012503604FF46023CDE9A6
:1010900001440394846005730475C3614460056171
:1010A00002F0ECF808B100F0D3F90523054801A9D6
:1010B000CDE90145039302F03DF808B100F0C8F90D
:1010C00005B030BDD80200200024014030B50546EF
:1010D00087B01022002102A804F063FF2A681D4B8C
:1010E0009A4234D103F56C439A691B4842F400726A
:1010F0009A619A6902A902F400720092009A9A69B0
:10110000164C42F004029A619B69012203F0040329
:101110000193019B0323CDE9022302F0EFFE80201F
:101120004FF480720023C4E903024FF4806C202244
:101130000B492046C4E90013C4E905C2A360E3617A
:1011400002F08AFC08B100F083F92C62656207B0F6
:1011500030BD00BF0024014000080140940200207F
:101160000800024008B504230D480E4A4FF4302110
:10117000C0E9002300234FF04072C0E902324FF46F
:101180008002C0E904124FF001228383826102F0E1
:10119000F3F818B1BDE8084000F05AB908BD00BF27
:1011A000080300200064004010B5044686B01022F9
:1011B000002102A804F0F5FE2268214B9A423DD19D
:1011C00003F5D633DA691F4842F00072DA61DA6952
:1011D00002A902F000720092009A9A6942F0040299
:1011E0009A619B6903F004030193019B4FF4006330
:1011F000029302F083FE4FF480520223CDE90223D2
:101200000323104802A9059302F078FE002214205F
:10121000114602F0CFFB142002F0FCFB0022152047
:10122000114602F0C7FB152002F0F4FB0022162045
:10123000114602F0BFFB162002F0ECFB06B010BD19
:1012400000640040000801400A4B07B55A690B20B2
:1012500042F001025A6100225B69114603F001036A
:101260000193019B02F0A6FB0B2003B05DF804EB99
:1012700002F0D0BB0010024010222DE9F04188B0EE
:101280000DEB0200002104F08CFE2A4BDFF8A88051
:101290009A692A4D42F020029A619A69404602F00A
:1012A00020020192019A9A6948F2C00142F00402B8
:1012B0009A619A69002402F004020292029A9A69E1
:1012C000012742F008029A619B69002203F008039B
:1012D0000393039B02F0ECFE00222846C82102F093
:1012E000E7FE022648F2C003404604A9CDE90437D0
:1012F000CDE9064602F002FE4FF4E042104B2846CC
:1013000004A9CDE90423069402F0F8FDC823284679
:1013100004A9CDE90437CDE9064602F0EFFD2246E7
:101320002146282002F046FB282002F073FB08B07B
:10133000BDE8F0810010024000080140000C0140AF
:101340000000311010B594B0142200210CA804F054
:1013500028FE142200210DEB020004F022FE1022D0
:10136000002101A804F01DFE02244FF48033012265
:10137000CDE91143CDE90A234FF4E0130AA80E92F8
:10138000139302F0AFFE08B172B6FEE70F23CDE96A
:1013900005344FF480630790CDE90830214605A855
:1013A00003F062F808B172B6FEE74FF4004301A8FB
:1013B0000194039303F014F908B172B6FEE714B078
:1013C00010BD000007B501F07FFEFFF7BBFF00F086
:1013D00037FB142001F09CFEFFF74EFFFFF734FFB0
:1013E000FFF74CFEFFF7BEFE00F02EF900F0D4F937
:1013F00000F026FA00F040FA00F05AFA00F0EEF899
:1014000000F034FB0F4803F0D9F90A2001F080FE08
:10141000802300930C4B402219460C4801F0C8FA77
:1014200000F0CEFF01F09AFB01F048FD01F048FB0F
:1014300001F06EFC01F06AFD01F088F9082001F06E
:1014400067FEF3E734030020000C01400C07002086
:1014500072B6FEE70E4B82B09A6942F001029A61C1
:101460009A6902F001020092009ADA6942F0805211
:10147000DA61DB69074A03F080530193019B5368EB
:1014800023F0E06343F00073536002B0704700BF85
:101490000010024000000140FEE7FEE7FEE7FEE725
:1014A000FEE770477047704701F020BE014802F028
:1014B00069BB00BF94020020014802F065B900BF7B
:1014C00008030020FFF7F8BFFFF7F6BF014803F05D
:1014D000E1B900BF7C030020014803F0DBB900BF85
:1014E00034030020014803F05BBE00BF9C040020D1
:1014F000014803F055BE00BF54040020014803F02A
:101500004FBE00BF0C04002008B54FF4805002F01D
:10151000DDFD4FF4005002F0D9FDBDE808404FF466
:10152000804002F0D3BD0120704708B504F08CFD67
:10153000162303604FF0FF3008BD08B504F084FDAA
:1015400016230360FEE770B50D4614460E46731B66
:101550009C4201DC204670BDAFF3008006F8010B11
:10156000F5E770B50D4614460E46731B9C4201DC30
:10157000204670BD16F8010BAFF30080F5E74FF081
:10158000FF3070474FF4005300204B60704701203C
:1015900070470020704700000B4A0346116810B5E1
:1015A00009B90A491160106809490A4C0344091B2A
:1015B0008B4206D904F048FD0C2303604FF0FF3046
:1015C00010BD1360FCE700BF30030020300A00208C
:1015D0000050002000040000704700007FB510227A
:1015E000002102A804F0DDFC40F2CF224FF0804140
:1015F00014480023C0E9001240F2E732CDE900337D
:10160000C0E9032383608023836103F009FA08B1F2
:10161000FFF71EFF4FF480530A4802A9029303F01C
:10162000E5FA08B1FFF714FF002369460548CDE944
:10163000003303F075FB08B1FFF70AFF07B05DF850
:1016400004FB00BF7C0300207FB51022002102A80C
:1016500004F0A7FC4722154815490023C0E90012F1
:101660004FF6FF72CDE90033C0E903238360802386
:10167000836103F0D5F908B1FFF7EAFE4FF4805318
:101680000A4802A9029303F0B1FA08B1FFF7E0FE9D
:10169000002369460548CDE9003303F041FB08B15A
:1016A000FFF7D6FE07B05DF804FB00BF340300204F
:1016B000000800400268084B82B09A420AD103F544
:1016C00064439A6942F400629A619B6903F400637F
:1016D0000193019B02B07047002C0140036807B5DD
:1016E000B3F1804F15D103F50433DA691C2042F0C1
:1016F0000102DA610022DB69114603F00103009365
:10170000009B02F057F91C2003B05DF804EB02F0D7
:1017100081B90B4A934210D10A4B1E20DA6942F07C
:101720000402DA610022DB69114603F0040301932D
:10173000019B02F03FF91E20E6E703B05DF804FBD1
:10174000000800400010024010B5044686B0102288
:10175000002102A804F025FC22680D4B9A4214D106
:1017600003F564439A690B4842F004029A619B694D
:101770004FF4807203F004030193019B022302A93A
:10178000CDE90223059302F0B9FB06B010BD00BFFE
:10179000002C01400008014010B5002492B01C222A
:1017A000214603A8CDE9014404F0FBFB2022214699
:1017B0000AA804F0F6FB01231F48204AC0E90544AB
:1017C000C0E9002340F60F638460C0E9033403F0EE
:1017D00053F908B1FFF73CFE174801A9CDE90144D0
:1017E00003F09EFA08B1FFF733FE0024602322467F
:1017F000114803A9CDE90334CDE90544CDE90744F7
:10180000099403F091F908B1FFF722FE4FF4005359
:1018100009480AA9CDE90A44CDE90C440E940F9376
:10182000119403F0ABFA08B1FFF712FE0248FFF77C
:101830008BFF12B010BD00BFC4030020002C01407C
:1018400008B54FF4E1330A480A4AC0E900230023EF
:101850000C22C0E90233C0E905230361C36103F030
:101860004FFB18B1BDE80840FFF7F2BD08BD00BF4F
:101870009C0400200038014008B54FF4E1330A48C9
:101880000A4AC0E9002300230C22C0E90233C0E960
:1018900005230361C36103F033FB18B1BDE80840C1
:1018A000FFF7D6BD08BD00BF54040020004400402F
:1018B00008B54FF4E1330A480A4AC0E9002300237F
:1018C0000C22C0E90233C0E905230361C36103F0C0
:1018D00017FB18B1BDE80840FFF7BABD08BD00BF4F
:1018E0000C0400200048004010B504468AB01022C5
:1018F000002106A804F055FB23684B4A934231D1DE
:101900004A4B4FF400709A6906A942F480429A61EA
:101910009A69002402F480420092009A9A6942F087
:1019200004029A619B6903F004030193019B022363
:10193000CDE9060303233E48099302F0DFFA4FF492
:1019400080633B4806A9CDE90634089402F0D6FA34
:1019500025202246214602F02DF8252002F05AF8D3
:101960000AB010BD334A93422CD1304B0421DA69BE
:101970002F4842F40032DA61DA69002402F40032BE
:101980000292029A9A6942F004029A619B6903F0FA
:1019900004030393039B0223CDE90613032306A943
:1019A000099302F0ABFA0823214806A9CDE90634D1
:1019B000089402F0A3FA26202246214601F0FAFFFD
:1019C0002620CBE71C4A9342CAD1184B1B48DA6940
:1019D00006A942F48022DA61DA69002402F4802246
:1019E0000492049A9A6942F008029A619B694FF442
:1019F000806203F008030593059B0223CDE90623CB
:101A00000323099302F07AFA4FF400630B4806A906
:101A1000CDE90634089402F071FA2720224601210C
:101A200001F0C8FF272099E700380140001002406C
:101A3000000801400044004000480040000C014004
:101A400008B5074A074B1A602822074B1A8002F094
:101A500057F900F095F9BDE8084002F063B900BFFE
:101A600004000020E8040020E404002038B5654D9F
:101A7000654C2946208800F05BF9A91C608800F0BD
:101A800057F9291DA08800F053F9A91DE08800F03E
:101A90004FF905F10801208900F04AF905F10A0122
:101AA000608900F045F905F10B01A08900F040F9CB
:101AB00005F10C01E08900F03BF905F10E01208AE7
:101AC00000F036F905F11001608A00F031F905F1F6
:101AD0001201A08A00F02CF905F11401E08A00F04F
:101AE00027F905F11601208B00F022F905F1180104
:101AF000608B00F01DF905F11A01A08B00F018F9B8
:101B000005F11C01E08B00F013F905F11E01208C9A
:101B100000F00EF905F12001608C00F009F905F1E3
:101B20002201A08C00F004F905F12401E08C00F002
:101B3000FFF805F12601208D00F0FAF805F12801E3
:101B4000608D00F0F5F805F12A01A08D00F0F0F8A5
:101B500005F12C01E08D00F0EBF805F12E01208E4F
:101B600000F0E6F805F13001608E00F0E1F805F1D3
:101B70003201A08E00F0DCF805F13401E08E00F0B7
:101B8000D7F805F13601208F00F0D2F805F13801C1
:101B9000608F00F0CDF805F13A01A08F00F0C8F891
:101BA00005F13B01E08F00F0C3F805F13C01B4F80A
:101BB000400000F0BDF805F13D01B4F8420000F02E
:101BC000B7F805F13E01B4F8440000F0B1F805F1B2
:101BD0004001B4F8460000F0ABF805F14201B4F85A
:101BE000480000F0A5F805F14401B4F84A0000F0FF
:101BF0009FF8B4F84C0005F14601BDE8384000F00C
:101C000097B800BF540000200400002008B5431E10
:101C1000DBB2FC2B014609D8054B9872054B58895D
:101C200000F07AF9B0FA80F0400908BD0020FCE726
:101C300054000020040000204FF6FF71064A904235
:101C400001D30120704703889BB28B4201D104303D
:101C5000F5E70020704700BF00FC000838B51B4BBB
:101C60000446188803F580631B880A469BB280B23D
:101C70007BB94EF6EE63C31A18BF01239B021448CA
:101C800003F1006505F578451844854208D38020A6
:101C900010E0C0B94EF6EE61591A4B424B41EDE7E8
:101CA0002B6801330DD100232946012002F06EF884
:101CB000034600B138BD2246A91C012002F066F897
:101CC000F8E70435E1E7AB20F4E700BF00F80008CF
:101CD000FEFB0008002310B586B0CDE901330123D7
:101CE0001148CDE90403FFF7A7FF90B100220023BC
:101CF00001200D4902F04AF8044688B90B480490C7
:101D0000FFF79AFF60B901A902A802F0A3F8044600
:101D100006E001A902A802F09DF804460028E5D0DB
:101D2000204606B010BD00BF00F8000800FC000807
:101D3000104B10B51A8803F580631B8892B29BB2D2
:101D40000AB1ABB901220C4B0C4C03EB822304EB20
:101D500082229A4201D3012007E01C88A4B2844267
:101D600004D1002033F8023C0B8010BD043BF0E7A7
:101D7000AB20FAE700F80008FEFB000802F80008B4
:101D800000232DE9F04786B0CDE9013301234EF65B
:101D9000EE615C4E5C4D3488CDE90463A4B22B88BF
:101DA0008C429BB226D04FF6FF72944204D0002C96
:101DB0006AD0FFF78FFF07E04BB93046FFF73CFFD3
:101DC000002800F09A80002006B0BDE8F0878B4222
:101DD000EFD13046FFF730FF28B901A902A802F081
:101DE00039F80028F0D1002200234749012001F0F2
:101DF000CDFFE9E7002B3FD04FF6FF729342D8D1D9
:101E000028460495FFF718FF28B901A902A802F097
:101E100021F80028D8D1002200233A49E6E7D9F872
:101E200000A0A5B2F3883AF815009BB2834208BF20
:101E300027B2BD4213D10134B8F80020A3B29A42B0
:101E4000EDD80022002301202E4901F09FFF002839
:101E5000BAD102902C48012304900593AEE72B4998
:101E6000FFF766FF0128E6D009883AF81500FFF76A
:101E7000F5FE0028DFD0A7E71C464FF0FF37DFF85C
:101E80009080DFF89090D7E7002B92D093422DD12D
:101E90002846049592E7D9F800A0A6B2EB883AF854
:101EA00016009BB2834208BF27B2B74211D101345A
:101EB000B8F80020A3B29A42EDD8002200230120F6
:101EC000114901F063FF00287FF47EAF02900D48B6
:101ED000C1E70E49FFF72CFF0128E8D009883AF83E
:101EE0001600FFF7BBFE0028E1D06DE74FF0FF378B
:101EF000DFF81C80DFF81C90DAE701A902A801F0E6
:101F0000A9FF61E700F8000800FC0008EC040020CD
:101F1000E4040020E80400202DE9F04F064688463E
:101F200087B001F0EDFE41463046FFF797FE80286E
:101F3000044655D1002301932D4B2E4D19882A8834
:101F400089B292B269B1002A50D12F461D464EF691
:101F5000EE6200232946012001F018FF18B1044663
:101F60003EE01F46F3E741463046FFF777FE044662
:101F7000002835D18346DFF88090DFF880A0204B21
:101F80001A881FFA8BF39A4211D80023012401A961
:101F900002A802930497059401F05CFF0028DED1AB
:101FA000002200232946204601F0F0FED7E7D9F8A9
:101FB00000401FFA8BF834F81800864202D10BF16A
:101FC000010BDCE70D49FFF7B3FE0128F7D034F829
:101FD0001800BAF80010FFF741FE04460028EED0C2
:101FE00001F0A0FE204607B0BDE8F08FAB24F7E774
:101FF00000F8000800FC0008E8040020EC040020C1
:10200000E404002038B131B1012A82BF0023C0E9C5
:102010000012C0E902337047F0B540B111B38368D4
:10202000046800271C4413464D1E0BB9D01AF0BD9E
:102030008168C66801318E42F8D0D0F804C08C4562
:1020400001D1002EF2D015F8016F013B26704668D1
:102050008E4215BF81680468013187601CBF8160B2
:102060000134E2E70846E2E7F0B5044608460BB162
:1020700000211970F4B148B1D4E90231994219D064
:10208000236800260B44114609B9501AF0BDD4E963
:102090000257AF4293F800C0F7D000F801CBE568D3
:1020A00067680135BD42E56006BF2368E66001331D
:1020B0000139E9E70020E9E737B50F4D0446286804
:1020C00001F0B9FA0023A8B122460C49C1E9013355
:1020D00023790B6152F8053BC3F30A009B0B03F015
:1020E00002030860CB60286801AB01F05BFAB0FA2C
:1020F00080F0400903B030BD240500200C0500200D
:102100001FB5114C0DF10503224601F0A8FA034654
:10211000C0B90E492268897A8A420ED1E168881EC8
:102120004142414142EAC1320092226969468DF83A
:10213000042007481022FFF76FFF4FF400510548B5
:1021400001F0BBFF04B010BDF004002054000020DB
:10215000340500200010014008B530B101F0F7F956
:1021600018B90122014B83F86C2008BD240500201A
:1021700070B50024204D8AB006464FF496721F4970
:10218000286005F110006C6085F86C40FFF73AFF9D
:102190000123042285F8354085F86D3085F84540E7
:1021A00085F86E4085F8554085F865401449AA8445
:1021B000326807938A4214BF0E22224608930E23E8
:1021C00069463046CDE90524CDE90044CDE9024415
:1021D000AC81AC600494099301F049F948B913212A
:1021E000304601F0B8FA001B18BF012040420AB087
:1021F00070BD4FF0FF30FAE7240500209405002061
:102200000064004070B5437B0546124C03F0FF06A6
:1022100023B194F86D308BB16FF00806EFF31083A3
:10222000A36672B62846FFF747FF60B1AB7B84F820
:102230006E30A36E83F31088304670BD636843F040
:1022400008036360E8E701236B73A3890133A3816B
:10225000EFE700BF2405002010B5EFF31082134B09
:102260009A6672B693F86E201AB1002283F86E2037
:102270000122998909B1988C40B9996E81F310882F
:102280001AB15A6842F080025A6010BDC11C03EBBB
:1022900001114C793CB18C792CB100224A719A8998
:1022A000013A9A8102220138E6E700BF24050020A6
:1022B000114A136890681B68996901F007039842F6
:1022C00006D093604B07908803D540F0040050601F
:1022D000704741F3000323F0FE03DB0520F4417057
:1022E000DB0D20F0030018438B0744BF40F400705F
:1022F00040F00200EBE700BF24050020034B93F8F9
:102300006C3013B10021FFF7FBBE7047240500209D
:10231000034B93F86C3013B10121FFF7F1BE704706
:1023200024050020F8B50027124CA38984F86D70AD
:1023300084F86E705BB1EFF31083A36672B6A58C60
:1023400004F1280625B9A581A36E83F31088F8BD92
:10235000737B53B13046FFF7AFFE30B17773A3897B
:10236000013BA381B37B84F86E30013DADB21036E2
:10237000E8E700BF240500200121FFF7D3BFFFF7E6
:10238000FBBFFFF7F9BF00000B4A014608B5D2E9D1
:1023900006301B1A44BF52699B180F2B09D9002322
:1023A00010220648FFF760FE0F2894BF002001208E
:1023B00008BD0020FCE700BF2405002034050020F4
:1023C00010B5064CFA212046FFF7D2FE2046FFF753
:1023D000C3FE0022024B1A7010BD00BF080300208C
:1023E000F4060020012308488362062380F82C307D
:1023F000064B28309B7A437140238371044B1B6842
:10240000C0F80730FFF7FEBE24050020540000206E
:102410000007002001220E4B9A62062283F82C202E
:102420000C4A83F82F00927A03F1280083F82D20BC
:10243000412283F82E20084A117883F83010517811
:10244000927883F8311083F83220FFF7DBBE00BFAB
:102450002405002054000020F1060020012370B55F
:102460002F4C4222A362062384F82C302D4B2E4E93
:102470009B7A84F82E20962B84F82D3001D0A02B47
:102480001ED10423294984F82C30B068FEF70AFCD9
:1024900000210546FEF7B8FD4FF07C5160B128469B
:1024A000FEF7F8FAFEF7C4FD00B2A4F82F002048AA
:1024B000BDE87040FFF7A6BE2846FEF7E9FAF1E74F
:1024C0001A497068FEF7EEFB00210546FEF79CFDF9
:1024D0004FF07C51E8B12846FEF7DCFAFEF7A8FD84
:1024E00000B21249A4F82F003068FEF7DBFBFEF7BC
:1024F0009FFD05B22846FEF781FB002D4FF07C5171
:102500000BDBFEF7C7FAFEF793FD00B2A4F831002B
:10251000CDE72846FEF7BCFAE0E7FEF7B9FAF2E7A6
:1025200024050020540000203C0700200000C84281
:102530004C050020012370B5224C4422A3620623DF
:1025400084F82C30204B84F82E209B7A962B84F82C
:102550002D3036D0A02B34D01C4E1D49F068FEF72C
:10256000A1FB00210546FEF74FFD4FF07C5108B35B
:102570002846FEF78FFAFEF75BFD00B21449A4F877
:102580002F003069FEF78EFBFEF752FD05B228469C
:10259000FEF734FB002D4FF07C510FDBFEF77AFA8B
:1025A000FEF746FD00B2A4F83100BDE870400948CE
:1025B000FFF728BE2846FEF76BFADCE7FEF768FA5D
:1025C000EEE770BD24050020540000203C070020E9
:1025D0000000C8424C05002001230A4883620523FD
:1025E00080F82C30084B28309B7A43714523837147
:1025F000064B1B88A0F80730054B1B784372FFF78A
:1026000001BE00BF24050020540000208A080020DD
:102610008808002038B5434B02689B7A04469A42EA
:1026200007D14379152B30D004D8012B25D0102B9E
:1026300032D038BD462B3ED0482BFAD10379042B3B
:10264000F7D900F05FFD384DE388A2792B8023890C
:1026500068602B81E86002B1012208213348AA702A
:1026600001F026FD2A7A02B10122AA724FF400413C
:10267000BDE838402E4801F01BBD8379012BD8D12D
:10268000BDE83840C079FFF7C1BA8279294BFF2AEB
:1026900008BF0D221A80CCE78279274B1A80C279B5
:1026A000264B1A80027A264B1A80427A254B1A80D2
:1026B000827A254BEEE70379022BBAD9E579807946
:1026C000012D16D1042BB4D9248964BAA4B240B91F
:1026D000284601352146EDB200F032FB062DF7D138
:1026E000A7E7431E042BA4D82146BDE8384000F0DC
:1026F00027BB022D9DD180B9012000F07BFB28462D
:1027000000F078FB032000F075FB042000F072FB62
:102710000520BDE8384000F06DBB431E042B88D86F
:10272000F7E700BF54000020C8060020000C01405D
:1027300000080140A8000020A6000020A4000020FE
:10274000A2000020A00000209E000020F0B5434B16
:10275000434D1A882B6885B09A429CBF00232B609A
:10276000FFF7A6FDFFF778FD6846FFF70DFE10B1F5
:102770006846FFF74FFF3B4B1B8823B12A68934203
:1027800001D1FFF72FFE00F0BDFC374B04461B883C
:10279000364E002B53D0364F3B78002B4FD0387835
:1027A000FFF738FE00233B703460324B1B8823B1A7
:1027B0002A68934201D1FFF751FE2F4B1B8823B1AA
:1027C0002A68934201D1FFF7B5FE2C4B1B8823B139
:1027D0002A68934201D1FFF7FFFE00F093FC284CDA
:1027E0000646217889B1A2784FF47A7392B34B43AD
:1027F0006168711A994208D3B2FA82F2082152092B
:102800002048A270666001F053FC217A91B1A27A4F
:102810004FF47A7302B34B43E168711A994209D3BA
:10282000B2FA82F24FF4004152091748A272E660F0
:1028300001F03EFC2B6801332B6005B0F0BD33681E
:10284000E31AB3F5C87FB0D900F06CF80020FFF7A9
:10285000E1FDA9E76178CAE7617ADCE7A80000201A
:10286000C4060020A6000020A4000020C00600200E
:10287000F4060020A2000020A00000209E000020FE
:10288000C8060020000C01400008014038B50E4C7D
:1028900003682268126893420ED1002301220B497B
:1028A0000B48FFF7B9FB094D01222946206802F0C9
:1028B000DAFD0228F8D038BD064A9342FBD1BDE8C4
:1028C000384000F087BB00BFD8060020F00600208B
:1028D000DC0600200048004013B5104C0268034697
:1028E000206801688A4216D1596C090702D45B6CD2
:1028F0005B0706D500230193136801935368019386
:10290000019B02F07AFB01220549206802B0BDE874
:10291000104002F0A8BD02B010BD00BFD8060020D4
:10292000F006002010B54FF480510F4801F0BAFBBB
:1029300001280CBF002301230C4C4FF400512370DD
:10294000094801F0AFFB01280CBF002301234FF41D
:1029500080416370044801F0A5FB01280CBF0023EF
:102960000123A37010BD00BF000C0140F106002040
:10297000B0F5005F0AD0B0F5804F0AD0B0F5805FA7
:1029800002D10322044B1A70FFF7CCBF0222024B84
:10299000F9E70122004BF6E7F40600200022034B82
:1029A0001B685A625A6A8242FCD370473403002083
:1029B0002DE9F04304464FF003081E460025012789
:1029C00085B0BDF830906360228108462160A4F88C
:1029D0000A90694684F815800092CDE90175CDF81A
:1029E0000C8001F08BFA69463046CDE90157CDF8ED
:1029F0000C80CDF8009001F081FA3A4621892068D8
:102A000001F056FB0A2000F083FB2A46218920684A
:102A100001F04EFB0A2000F07BFB0522034B1D60FA
:102A2000034B1A6005B0BDE8F08300BF0807002023
:102A30000407002070B504461825002601222189CC
:102A4000206801F035FB0120FFF7A8FF864061896F
:102A5000606801F027FB002201282189206808BF57
:102A60000136013D01F024FB0120FFF797FF15F02F
:102A7000FF05E3D1637DAB4207DC16F4000F0CBF0A
:102A800000204FF07F40304470BD01222189206832
:102A900001F00EFB0120FFF781FF00222068218951
:102AA00001F006FB0120FFF779FF0544E2E74189C9
:102AB00008B5406801F0F6FAB0FA80F0400908BDA8
:102AC00070B500F01FFB04461148FFF7F0FF114EF0
:102AD000E0B13368104DE31A052B09D90C48FFF714
:102AE000A9FF0E4A1368034413602B6801332B605F
:102AF0000B4B29681B68994208D3084A1368B3FB3B
:102B0000F1F308490B6000232B601360346070BD43
:102B10000C070020FC060020F80600200807002013
:102B20000407002000070020024601444FF6FF7012
:102B300030B5094D8A4200D130BD082412F8013B5E
:102B4000584040F300032B4083EA500398B2631EC1
:102B500013F0FF04F5D1EDE701A0FFFF70B5C42528
:102B60006426254B01229D71DE719D739D750226A1
:102B700031251E72DD75572605250021802406208B
:102B80001A70DE7303221D760426C5251971197388
:102B9000197519775A709A70DC7058715A729A7256
:102BA000DC7258731E745A749A74DC7458755A76B1
:102BB0009A76DC765877E0269D7783F8202083F894
:102BC000212083F822208622DE7783F8234083F8B1
:102BD000241083F8250083F8265083F82720074B1C
:102BE0000748198001F010FEBDE870404FF4807274
:102BF0000449054802F048BC540700205207002051
:102C00007C0300207C07002054040020036810B5DA
:102C1000B3F1804F11D1094C094920784FF0FF33AF
:102C200001EBC0010822074802F099F9237801332B
:102C3000DBB2042B88BF0023237010BD24070020C3
:102C400054070020540400200268074B9A420AD11E
:102C50000122064B06481980064B07491A704FF4AB
:102C6000807202F011BC70470044004052070020FF
:102C700054040020500700207C070020062970B56E
:102C800005460C4637D90678013EF3B2042B32D8FC
:102C9000023989B2FFF748FF2C4414F8012C14F8CC
:102CA000023C43EA0223834225D16B78032B22D1D5
:102CB000AB780C2B1FD1B5F80B40E4B9D5F8030065
:102CC00000BAC0F31400FDF795FF0C49FEF79EF81B
:102CD0000B49FDF7DDFE0B4B43F82600B5F80D0060
:102CE000C0BAFDF78BFF0849FDF7DCFF074B43F83F
:102CF0002600204670BD4FF0FF30FBE7610BB64564
:102D0000000034433C070020B37B923E280700209C
:102D100038B5084B1A785AB10025074C1D70238826
:102D20009BB22BB12188054889B2FFF7A7FF258008
:102D300038BD00BF50070020520700207C0700204C
:102D40007FB5431E042B06460D464AD8264801F09F
:102D500085FD0A2000F0DCF910238DF801304CF2DB
:102D60000323ADF80230214B002401930F230B21E4
:102D70006846ADF808308DF800608DF80A40FFF71E
:102D8000D3FE030A0D2269468DF80B008DF80C3036
:102D900017484FF4FA7302F0E2F81E2000F0B8F979
:102DA00006214CF2031368466DBA8DF80110ADF898
:102DB00002308DF80060ADF80450FFF7B5FE4FF417
:102DC000FA7308226946ADF80600094802F0C7F810
:102DD000142000F09DF9044801F016FD204604B0CF
:102DE00070BD4FF0FF30FAE77C03002000020400C2
:102DF00054040020431E042B13B5044621D8124866
:102E000001F02CFD0A2000F083F94123022101A8E2
:102E10008DF805308DF80440FFF786FE04224FF44C
:102E2000FA730DEB0201ADF80600084802F097F8BE
:102E3000642000F06DF9044801F0E6FC002002B0C7
:102E400010BD4FF0FF30FAE77C030020540400204F
:102E500030B50024144A154D136885B00133136052
:102E60002B6801941A68284601925A680192019AC7
:102E700002941A6802925A680292029A03941A689B
:102E800003925B680393039B02F0B7F8084B01229F
:102E9000084928461C7002F0E6FA00F033F9064BA8
:102EA000186005B030BD00BF7C0800200C04002075
:102EB00090080020940800208C08002010B5002401
:102EC0000A4B1C800A4B1C700A4B1C7000F01AF94C
:102ED000094B01221860094B09491C80094B0A481B
:102EE0001C70BDE8104002F0BEBA00BF920800207E
:102EF00091080020900800208C0800208A080020FB
:102F000094080020880800200C040020F8B500F088
:102F1000F9F8284D04462B68C31AB3F57A7F01D916
:102F2000FFF796FF244A254B117859B12968641A96
:102F3000052C07D911782248C9B2018001211970E6
:102F4000002111701A785AB300271E4A1F701368A7
:102F50001B4D013313602B889BB20BB3298889B2B8
:102F600006291BD9184C2378062B17D16378032B1D
:102F700014D1A378022B11D1A21E631E5B5C565C98
:102F80000239204689B246EA0326FFF7CDFD864284
:102F900004D1E3780D4AFF2B03D1177000232B8057
:102FA000F8BDB4F803300A495BBA0B8001231370F3
:102FB000F4E700BF8C080020900800209108002052
:102FC0009208002080080020950800208808002032
:102FD0008A080020114A08B513680133136000F015
:102FE00091F80F4B18600F4B1A781F2A11D81978D7
:102FF0004A1CD2B21A700C4B1A780C4B5A5401224C
:1030000009490B4802F02FFA30B1BDE80840FFF73C
:103010001FBF00221A70F2E708BD00BF840800201D
:103020008C080020900800209408002095080020BB
:103030000C040020FEF7D0FA0B480C490C4A002380
:1030400002E0D458C4500433C4188C42F9D3094A5E
:10305000094C002301E013600432A242FBD302F0CA
:10306000F9FFFEF7AFF9704700000020780200205A
:10307000C4810008780200202C0A0020FEE700002E
:1030800038B50E4B05461A784FF47A73B3FBF2F35A
:103090000B4A1068B0FBF3F000F0CAFC044658B9C4
:1030A0000F2D09D8024629464FF0FF3000F082FC70
:1030B0002046044B1D6038BD0120FCE7AA0000201B
:1030C00000000020AC000020074A08B51368032068
:1030D00043F01003136000F05BFC0F20FFF7D0FFFC
:1030E000FEF7B8F9002008BD00200240034A044B57
:1030F00011681B780B441360704700BFB8080020AC
:10310000AA000020014B1868704700BFB8080020D3
:1031100038B50446FFF7F6FF0546631C1EBF044B97
:103120001B78E418FFF7EEFF431BA342FAD338BD28
:10313000AA000020002373B5019390F824300446C0
:10314000012B6CD0012380F824304D680268062DD5
:10315000086805EB850322D81F26556B053B9E406A
:1031600025EA060500FA03F32B43536309288B680D
:1031700000EB40054FF0070129D9D6681E3DA94054
:1031800026EA0101AB400B43D360A0F11003012BF1
:1031900025D90020002384F8243002B070BD0C2D06
:1031A0004FF01F0509D8166B233B9D4026EA050505
:1031B00000FA03F32B431363D8E7D66A413B9D40E3
:1031C00026EA050500FA03F32B43D362CEE7106924
:1031D000A94020EA0101AB400B431361D9E7114B31
:1031E0009A4216D193681B02D3D49368102843F4F3
:1031F00000039360CDD10C4B0C4A1B68B3FBF2F378
:103200000A2253430193019B002BC2D0019B013B37
:10321000F8E7A36A012043F02003A362BAE7022083
:10322000BBE700BF002401400000002040420F0027
:1032300038B5036804469A68D10701D4002038BD28
:103240009A6822F001029A60FFF75CFF0546236846
:103250009B68DB07F2D5FFF755FF401B0228F6D924
:1032600023689B68DA07F2D5A36A012043F01003B4
:10327000A362E36A43F00103E362E0E7F8B50446C2
:1032800000286DD0836A23B9C36280F82430FDF72B
:103290001DFF2046FFF7CCFFA36A13F0100361D196
:1032A00000285FD1A26A616822F4885222F00202EB
:1032B00042F00202E569A668A262227B2943B6F5C4
:1032C000807F41EA420136D0771E7D427D412D024A
:1032D000277D012F06D182BBA269013A45EA42321D
:1032E00042F400652268B6F5807F576827F4694785
:1032F00045EA0705556097681D4D05EA070545EA4B
:103300000105956001D0012E02D12369013B1B0507
:10331000D56A25F470052B43D3629268154B134090
:10332000994213D10023E362A36A23F0030343F01D
:103330000103A362F8BD3546CAE7A26A42F0200243
:10334000A262E26A42F00102E262CBE7A36A23F0E2
:10335000120343F01003A362E36A43F00103E36244
:103360000120E7E7A36A43F01003A362F8E700BF78
:10337000FDF7E1FFFE0E1FFF38B5044600286ED0B2
:1033800090F820300BB9FDF70FFF2268136843F067
:1033900001031360FFF7B6FE054623685A68D1079C
:1033A00051D51A6822F002021A60FFF7ABFE0546FB
:1033B00023685A68920754D4227E0020012A1A6892
:1033C0000CBF42F0800222F080021A60627E012A65
:1033D0001A680CBF42F0400222F040021A60A27E3E
:1033E000012A1A680CBF42F0200222F020021A6063
:1033F000E27E012A1A680CBF22F0100242F010028D
:103400001A60227F012A1A680CBF42F0080222F0DB
:1034100008021A60627F012A1A680CBF42F0040297
:1034200022F004021A60D4E902210A4321690A4306
:1034300061690A43616801390A43DA610123606204
:1034400084F820300CE0FFF75DFE401B0A28A4D969
:10345000636A43F400336362052384F8203001205B
:1034600038BDFFF74FFE401B0A28A1D9F0E770B521
:1034700090F820200368013A012A62D80120D3F88D
:10348000002242F00102C3F800224A69D3F81C521C
:1034900002F01F04A04025EA0005C3F81C52CD69C4
:1034A000C44395BBD3F80C52CE682540C3F80C52E8
:1034B0008D8803EBC20245EA0645C2F840528E6889
:1034C0000D8845EA0645C2F844528A697ABBD3F8AA
:1034D00004222240C3F804220A6962BBD3F81422F2
:1034E0001440C3F814420A6A012A04BFD3F81C220C
:1034F00002434FF0000008BFC3F81C22D3F800229B
:1035000022F00102C3F8002270BD012DDDD1D3F8F5
:103510000C520E680543C3F80C528D8803EBC202AF
:1035200045EA0645C2F840528E688D89C9E7D3F84E
:1035300004220243CEE7D3F814220243C3F8142234
:10354000D1E7436A43F4802343620120DCE738B5C6
:1035500090F820300446012B1FD10223026880F826
:103560002030136823F001031360FFF7CBFD0546FD
:103570002368586810F0010001D1606238BDFFF780
:10358000C1FD401B0A28F3D9636A43F40033636228
:10359000052384F820300120F0E7436A43F4002338
:1035A0004362F8E7F0B590F820500468013D012D22
:1035B000A6683CD816F0E05F33D00125C6F3016061
:1035C00085401D60D1E9025700F1180315BB0D6855
:1035D0001B0147EA4557E75004EB001305010020A3
:1035E0000E692C44C3F88461097D012902BFD3F818
:1035F000841141F48071C3F884115168C4F88C11AE
:103600001268C4F88821D3F8802142F00102C3F87F
:103610008021F0BD4E683D4345EAC6051B01E550DB
:10362000DAE7436A43F4001343620120F1E7436A97
:1036300043F48023F8E790F82030013B012B0CD8AD
:10364000036898689A689B681201C0F3806048BF5D
:103650000130DB0002D50130704700207047F0B523
:1036600090F82040013C012C71D8066841B9F468FB
:10367000A40707D1436A43F4001343620120F0BD5D
:103680003469F5E706EB0115D5F8B0710C0107F0C8
:1036900004079760002F50D1D5F8B0717F0D1760E7
:1036A000D5F8B071264407F00207D760D5F8B47199
:1036B0003F074EBF0827D5F8B47107F00F07176111
:1036C000D5F8B471D5F8B451C7F307272D0C97611D
:1036D0005561D6F8B8211A7002682244D2F8B82190
:1036E000120A5A7002682244D2F8B821120C9A7059
:1036F00002682244D2F8B821120EDA70026822441D
:10370000D2F8BC211A7102682244D2F8BC21120AF4
:103710005A7102682244D2F8BC21120C9A710268D4
:103720002244D2F8BC21120EDA71036851B9DA686A
:1037300042F02002DA600020A1E7D5F8B071FF085E
:103740005760ADE71A6942F020021A61F3E7436A55
:1037500043F4802391E790F82030013B012B05D8FA
:10376000026800205369194351617047436A43F46A
:10377000802343620120704770477047704770474D
:1037800070477047704770472DE9F84F036805464A
:103790005E69D3F8049016F00104D3F80880D3F8DA
:1037A0000CB0D3F810A09F6927D018F0010F07D0F4
:1037B000012218F0020F9A6000F0A580FEF7DCFDF0
:1037C000002418F4807F0AD04FF480722B6818F41C
:1037D000007F9A6000F0A6802846FEF7D0FD18F41E
:1037E000803F0AD04FF480322B6818F4003F9A6073
:1037F00000F0A8802846FEF7C4FD310707D51BF06E
:10380000100F1FBF10222B6844F40074DA60720797
:1038100008D51BF0080F05D008222B682846DA606F
:10382000FFF7ADFFB30706D52B68DB68980702D01A
:103830002846FEF763FD710607D51AF0100F1FBF6B
:1038400010222B6844F480641A61B20608D51AF07D
:10385000080F05D008222B6828461A61FFF790FF51
:10386000F30606D52B681B69980702D02846FEF799
:103870004FFDB10308D519F0100F05D010222B68A9
:1038800028465A60FFF77DFFF20308D519F0080FAC
:1038900005D008222B6828465A60FFF773FF3304CF
:1038A00028D519F0040F2A6822D0F00544BF07F08C
:1038B00001031C43B10503D5BB0748BF44F0020414
:1038C000700503D5790748BF44F0040433050FD5CC
:1038D00017F070030CD0402B54D043D8202B4BD082
:1038E000302B4CD0102B44D0936923F0700393619C
:1038F000042353602CB16B6A284623436B62FFF7A5
:1039000042FFBDE8F88F18F0040F05D118F0080F3A
:1039100005D1FFF731FF53E74FF4006451E74FF44F
:1039200080544EE718F4806F02D044F4005456E7F8
:1039300018F4006F02D044F4804450E72846FFF7A3
:103940001CFF4CE718F4802F02D044F4004454E7E5
:1039500018F4002F02D044F480344EE72846FFF7D5
:103960000DFF4AE7502B10D0602BBDD144F480747A
:10397000BAE744F00804B7E744F01004B4E744F0B1
:103980002004B1E744F04004AEE744F08004ABE724
:1039900007490302CA6803F4E06322F4E0621204F8
:1039A000120C134343F0BF6343F40033CB60704702
:1039B00000ED00E0154B30B5DC68C4F30224C4F11F
:1039C0000703251D042B28BF0423062D4FF0FF35C8
:1039D00094BF0024033C05FA03F321EA0303A54046
:1039E00022EA0502A340002843EA0203ACBF00F12B
:1039F0006040074A4FEA0313DBB2ABBF00F56140FA
:103A000000F00F0080F80033135430BD00ED00E0EB
:103A100014ED00E0002807DB01234109034A00F010
:103A20001F00834042F82130704700BF00E100E0F2
:103A30000138B0F1807F0BD24FF0E023F021054A2E
:103A4000586182F823100020072298611A6170479C
:103A50000120704700ED00E0034610B530B3016867
:103A60001420134A0A44B2FBF0F292001A64114A7D
:103A7000DA63022283F82120D3E901242243DC689F
:103A8000086822431C696FF30D1022435C692243CE
:103A90009C692243DC69224302430A600020012220
:103AA000986383F8200083F8212010BD0120FCE7F3
:103AB000F8FFFDBF0000024090F821200346022AD3
:103AC00006D0042282630120002283F82020704760
:103AD0000268C06B116821F00E011160116821F0BD
:103AE0000101116001211A6C01FA02F2426000200A
:103AF00083F82110E8E7000008B590F82130022B88
:103B000003D004238363012008BD03681A6822F0F0
:103B10000E021A601A6822F001021A60174A9342D4
:103B20001FD0143293421ED0143293421DD014324F
:103B300093421DD0143293421DD01432934214BFCD
:103B40004FF080734FF480130D4A5360012380F8C7
:103B50002130002380F82030436B03B198470020C8
:103B6000D2E70123F0E71023EEE74FF48073EBE791
:103B70004FF48053E8E74FF48033E5E70800024054
:103B80000000024070B40425C66B026C3468036800
:103B900095402542196832D04D0730D51A689606EF
:103BA0005EBF1A6822F004021A603E4A934219D09E
:103BB0001432934218D01432934217D014329342E5
:103BC00017D01432934217D01432934214BF4FF0DF
:103BD00080634FF48003344A5360C36A002B5ED085
:103BE00070BC18470423F6E74023F4E74FF48063E2
:103BF000F1E74FF48043EEE74FF48023EBE7022533
:103C00009540254235D08D0733D51A68940606D4E1
:103C10001A6822F00A021A60012280F82120214A43
:103C2000934219D01432934218D01432934217D0D1
:103C30001432934217D01432934217D01432934265
:103C400014BF4FF000734FF40013174A5360002362
:103C500080F82030836AC1E70223F6E72023F4E7E7
:103C60004FF40073F1E74FF40053EEE74FF40033E5
:103C7000EBE708259540254211D009070FD51968B3
:103C800021F00E011960012303FA02F272608363CE
:103C900080F82130002380F82030036B9EE770BC51
:103CA000704700BF0800024000000240806B704770
:103CB000114AD36813F0100305D01049CB6943F0C3
:103CC0000203CB611023D268500706D50B4943F09D
:103CD0000403CA6942F00102CA61074AD169C907EF
:103CE00008D50648C16941F00401C161D16921F0DC
:103CF0000101D161D360704700200240C00800205C
:103D0000064B186910F0800007D0054A5A6002F18E
:103D100088325A601869C0F3C01070470020024012
:103D200023016745034A0020136943F080031361B0
:103D3000704700BF0020024070B50546FFF7E2F96A
:103D40000646114CE368D80712D4E368990644BFCD
:103D50002023E360E368DA0606D4E369DB0703D4D3
:103D6000E06810F0040007D0FFF7A2FF012003E095
:103D70006B1CE7D00DB9032070BDFFF7C3F9801BA2
:103D8000A842DFD9F7E700BF002002402DE9F84F35
:103D9000DFF894A01F469AF818300546012B884694
:103DA00091463FD001234CF250308AF81830FFF78B
:103DB000C3FF90BB012D03D0022D14BF04250225A3
:103DC00000263346DFF864B03401C4F12001A4F1C9
:103DD000200207FA01F129FA04F4CAF81C300C4356
:103DE00027FA02F21443DBF81020A4B242F00102D9
:103DF000CBF810204CF2503028F81640FFF79CFF0B
:103E0000DBF8102022F00102CBF8102028B901368F
:103E1000F2B295424FF00003D6D800238AF818304A
:103E2000BDE8F88F0220FBE7C00800200020024018
:103E30000022064BDA61064B1A6942F002021A614F
:103E400058611A6942F040021A617047C0080020A8
:103E5000002002402DE9F041264F05463B7E884672
:103E6000012B44D001243C7603684CF25030022BE5
:103E70001AD1FFF761FF20B1012000233B76BDE896
:103E8000F0811D4CF86123694CF2503043F004037B
:103E90002361236943F040032361FFF74DFF23694A
:103EA00023F004032361E8E7FFF746FF0028E3D18E
:103EB0004FF0FF33C8F800302046AE680E4CD5E90D
:103EC000023203EB8223B342D7D93046FFF7B0FF6B
:103ED0004CF25030FFF730FF236923F002032361D7
:103EE00010B1C8F80060C8E706F58066E7E7022071
:103EF000C5E700BFC0080020002002402DE9F74FB1
:103F000000244FF00F0E2646DFF884C1614B00F10C
:103F100004080A6832FA06F502D103B0BDE8F08F52
:103F2000012505FA06F702EA070537EA020276D10B
:103F30004A68032A07D8013A022A00F28380DFE8A0
:103F400002F091969C00122A00F0948069D8112A00
:103F500000F08A80FF2D94BF8146C1464FEA860259
:103F6000D9F8007088BF203A0EFA02FA27EA0A0749
:103F700004FA02F21743C9F80070D1F8049019F05E
:103F8000805F4CD0DCF8182026F0030742F00102D5
:103F9000CCF81820DCF8182007F1804702F0010265
:103FA000019207F5803706F0030A019A4FEA8A0A60
:103FB000BA680EFA0AFB22EA0B0B374A904260D02D
:103FC00002F5806290425ED002F5806290425CD041
:103FD00002F58062904214BF0422032202FA0AF220
:103FE00042EA0B02BA609A6819F4801F14BF2A4390
:103FF000AA439A60DA6819F4001F14BF2A43AA433F
:10400000DA605A6819F4003F14BF2A43AA435A6081
:104010001A6819F4803F14BF2A43AA431A60013674
:1040200077E7DFF878904A450CD014D8A9F58019C5
:104030004A4507D009F570294A4503D0A9F58019EA
:104040004A4587D18A68D2B1012A4FF008040CBFD3
:10405000076147617EE7DFF848904A45F2D009F5ED
:104060008039EDE7CC6875E7CC68043472E7CC683A
:1040700008346FE7CC680C346CE700246AE704244A
:1040800068E70022AAE70122A8E70222A6E700BF0C
:10409000001002400004014000080140000022100E
:1040A000000031108368194214BF012000207047BE
:1040B0000AB1016170470904FBE7C36801EA030222
:1040C00021EA030141EA024101617047044A08B54F
:1040D0005169014202D05061FEF74AFC08BD00BFA1
:1040E000000401402DE9F341054638B30368DB07BE
:1040F00010D42B689F075ED42B68190700F19580B8
:104100002B685A0700F1C180EB69002B40F02C812D
:10411000002029E0904C636803F00C03042B07D0C7
:10412000636803F00C03082B0AD16368DE0307D52C
:1041300023689C03DDD56B68002BDAD1012013E0E6
:104140006B68B3F5803F12D1236843F4803323605A
:10415000FEF7D8FF064623689803CAD4FEF7D2FFBD
:10416000801B6428F7D9032002B0BDE8F0819BB919
:10417000236823F480332360236823F4802323609F
:10418000FEF7C0FF064623689903B2D5FEF7BAFFD3
:10419000801B6428F7D9E6E7B3F5A02F236803D185
:1041A00043F480232360CFE723F480332360236824
:1041B00023F48023CBE7684C636813F00C0F07D01F
:1041C000636803F00C03082B10D16368DA030DD485
:1041D00023689B0702D52B69012BAFD123686A693D
:1041E00023F0F80343EAC203236085E72A695B4BA7
:1041F0006AB101221A60FEF785FF064623689F0711
:10420000ECD4FEF77FFF801B0228F7D9ABE71A60DA
:10421000FEF778FF0646236898077FF56DAFFEF737
:1042200071FF801B0228F6D99DE7AA694A4E4B4BC5
:10423000E2B10122C3F88024FEF764FF0446736AEA
:104240009B070DD54FF4FA52454B1B68B3FBF2F3B5
:10425000019300BF019B5A1E0192002BF9D14FE739
:10426000FEF750FF001B0228E9D97CE7C3F8802441
:10427000FEF748FF0446736A9F077FF541AFFEF7DC
:1042800041FF001B0228F6D96DE7334CE369D800E3
:1042900024D40127E36943F08053E361E36903F029
:1042A00080530093009B2F4E3368D90518D5EB68D7
:1042B000012B26D1236A43F001032362FEF722FF7C
:1042C00041F288380646236A9B073FD5002F3FF40A
:1042D0001BAFE36923F08053E36115E70027E2E7B2
:1042E000336843F480733360FEF70CFF8046336815
:1042F000DA05DCD4FEF706FFA0EB08006428F6D947
:1043000031E7ABB9236A41F2883823F00103236215
:10431000236A23F004032362FEF7F4FE0646236AB1
:104320009807D3D5FEF7EEFE801B4045F7D91AE774
:10433000052B236A03D143F004032362BAE723F079
:1043400001032362236A23F00403B6E7FEF7DAFED3
:10435000801B4045B7D906E70010024000004242EA
:1043600000000020007000402A4C626802F00C023D
:10437000082A3ED00022022B274B1A662CD1FEF7CA
:10438000C1FE06462368990120D42B6AB3F5803F0D
:1043900005D16268A96822F400320A436260696A42
:1043A00062680B4322F474121343012263601A4BB8
:1043B0001A66FEF7A7FE054623689A013FF5A8AEE8
:1043C000FEF7A0FE401B0228F6D9CCE6FEF79AFEC7
:1043D000801B0228D6D9C6E6FEF794FE0546236860
:1043E0009B017FF595AEFEF78DFE401B0228F6D9A6
:1043F000B9E6012B3FF4A2AE60682B6A00F480326C
:104400009A427FF49BAE6B6A00F47010C01A18BF1A
:104410000120A9E600100240000042420D4A536804
:1044200003F00C01082912D10B48C3F38341DB03CD
:10443000405C09D55368094AC3F340435043084AD6
:10444000D35CB0FBF3F07047064B5843704703480A
:10445000704700BF00100240327E000800127A0050
:10446000307E000800093D002DE9F0410D4604466C
:1044700010B90120BDE8F081444A136803F0070336
:104480008B4228D321688E0730D4CA0743D43F4AD1
:10449000136803F00703AB4265D822683C4D12F065
:1044A000040F6CD1130706D56B68226923F460539F
:1044B00043EAC2036B60FFF7B1FF6B68354AC3F391
:1044C0000313D35CD840344B1860344B1868FEF7A4
:1044D000D7FD0020CEE7136823F007030B431360DA
:1044E000136803F007038B42C3D1CBE7284B11F0CD
:1044F000040F1EBF5A6842F4E0625A60080742BFC8
:104500005A6842F460525A605A68A06822F0F00279
:1045100002435A60B9E762681D4E012A33681AD116
:1045200013F4003FA5D0736841F2883823F00303E9
:1045300013437360FEF7E6FD07467368626803F095
:104540000C03B3EB820FA2D0FEF7DCFDC01B40458D
:10455000F3D903208EE7022A02D113F0007FE1E7AE
:1045600013F0020FDEE7136823F007032B431360F9
:10457000136803F00703AB427FF47BAF8DE76B68F2
:10458000E16823F4E0630B436B608BE7002002409B
:1045900000100240207E000800000020AC00002037
:1045A000044B054A5B68C3F30223D35C034A1068DB
:1045B000D840704700100240187E0008000000201C
:1045C000044B054A5B68C3F3C223D35C034A1068FB
:1045D000D840704700100240187E000800000020FC
:1045E00003682DE9F3410546D80721D5364CE36928
:1045F000D9002BD40126E36943F08053E361E369DA
:1046000003F080530193019B304F3B68DA051FD5BF
:10461000236A6A6813F440732ED1236A6A6823F40C
:104620004073134323621EB1E36923F08053E361B7
:104630002A68910706D52449A8684B6823F44043AB
:1046400003434B60D30636D4002012E00026DBE79C
:104650003B6843F480733B60FEF754FD80463B6843
:10466000DB05D5D4FEF74EFDA0EB08006428F6D993
:10467000032002B0BDE8F08102F440729A42CCD02F
:104680000120134A236AC2F84004002023F4407139
:10469000DF07C2F840042162BFD5FEF733FD41F2C7
:1046A00088380746236A9807B7D4FEF72BFDC01B4E
:1046B0004045F7D9DCE7044AE968536823F48003EE
:1046C0000B435360C0E700BF001002400070004081
:1046D00000004242036A026A70B522F001020262DF
:1046E000446882690D6822F073022A438D6823F0C2
:1046F00002032B430A4DA8420BD1CD6823F00803D7
:104700002B4324F44074D1E90556354323F00403C8
:104710002C43446082614A684263036270BD00BFFB
:10472000002C0140036A026A70B522F480720262B2
:104730004468C2690D6822F073022A438D6823F42D
:10474000007343EA05230B4DA8420DD1CD6823F435
:10475000006343EA052324F44054D1E90556354368
:1047600023F4806344EA05144460C2614A68C2636A
:10477000036270BD002C0140036A026A30B522F466
:10478000805202624468C2690D6822F4E64242EA3D
:1047900005228D6823F4005343EA0533064DA842F1
:1047A00002BF4D6924F4804444EA85144460C26128
:1047B0004A680264036230BD002C014090F83D302D
:1047C000012B1CD102230F4A80F83D30036893422D
:1047D0000AD0B3F1804F07D0A2F59432934203D0B0
:1047E00002F58062934204D19A6802F00702062A19
:1047F00003D01A6842F001021A60002070470120BD
:10480000704700BF002C014090F83D30012B20D1B3
:10481000022380F83D300368DA6842F00102DA6072
:104820000D4A93420AD0B3F1804F07D0A2F59432DB
:10483000934203D002F58062934204D19A6802F059
:104840000702062A03D01A6842F001021A6000200B
:1048500070470120704700BF002C01400368DA68F0
:1048600022F00102DA6041F21112196A114208D1F4
:1048700040F24442196A114202BF1A6822F0010252
:104880001A60012380F83D30002070477047704760
:1048900070477047036870B5DD681E690446B1074C
:1048A0000DD5AA070BD56FF002021A61012202771B
:1048B0009B699B0769D0FFF7EAFF00232377710705
:1048C00010D56A070ED56FF00402236820461A61DE
:1048D000022222779B6913F4407F5CD0FFF7D7FF59
:1048E0000023237733070FD528070DD56FF0080273
:1048F000236820461A6104222277DB69990750D089
:10490000FFF7C5FF00232377F20610D5EB060ED57F
:104910006FF01002236820461A6108222277DB69B3
:1049200013F4407F43D0FFF7B2FF00232377F00753
:1049300008D5E90706D56FF00102236820461A6101
:10494000FEF764F9320608D52B0606D56FF0800213
:10495000236820461A6100F038FA700608D5690607
:1049600006D56FF04002236820461A61FFF791FFD9
:10497000B20622D5AB0620D56FF020022368204670
:10498000BDE870401A6100F01FBAFFF77FFF2046B4
:10499000FFF77EFF91E7FFF779FF2046FFF778FFEB
:1049A0009EE7FFF773FF2046FFF772FFAAE7FFF7C6
:1049B0006DFF2046FFF76CFFB7E770BD174A03682D
:1049C00090420AD0B0F1804F07D0A2F594329042C5
:1049D00003D002F58062904207D14A6823F0700349
:1049E0001343CA6823F4407313434A6923F08003D6
:1049F000134303608B68C3620B688362074B984262
:104A000004BF0B690363012343610369DB0742BFF2
:104A1000036923F001030361704700BF002C0140CC
:104A200010B5044630B390F83D3003F0FF021BB9D7
:104A300080F83C20FCF752FE0223206884F83D30C9
:104A4000211DFFF7BBFF0123002084F8463084F8C6
:104A50003E3084F83F3084F8403084F8413084F8A8
:104A6000423084F8433084F8443084F8453084F888
:104A70003D3010BD0120FCE710B5044630B390F87E
:104A80003D3003F0FF021BB980F83C20FCF712FE1A
:104A90000223206884F83D30211DFFF78FFF01239A
:104AA000002084F8463084F83E3084F83F3084F8A3
:104AB000403084F8413084F8423084F8433084F840
:104AC000443084F8453084F83D3010BD0120FCE7C7
:104AD000036A026A70B522F01002026244688269B9
:104AE0000D6822F4E64242EA05228D6823F0200395
:104AF00043EA05130B4DA8420DD1CD6823F0800386
:104B000043EA051324F44064D1E90556354323F004
:104B1000400344EA8504446082614A688263036218
:104B200070BD00BF002C014038B590F83C30044601
:104B3000012B4FD00120082A84F83C003AD006D837
:104B4000BAB1042A26D0002384F83C3038BD0C2AA0
:104B5000F9D12068FFF710FEC3690A6943F40063C6
:104B6000C361C36923F48063C361C36943EA022359
:104B70002EE02068FFF7AEFD83690A6943F0080361
:104B80008361836923F00403836183691343836131
:104B90000020D8E72068FFF79BFF83690A6943F488
:104BA00000638361836923F480638361836943EADB
:104BB0000223ECE72068FFF7B5FDC3690A6943F0FB
:104BC0000803C361C36923F00403C361C3691343CA
:104BD000C361DDE70220B9E710B584680A4324F415
:104BE0007F4442EA03222243826010BD38B590F828
:104BF0003C300446012B4FF0020000F08E80012271
:104C000084F83D00206884F83C20836823F47F43C7
:104C100023F0770383600B68602B4FD032D8402B92
:104C200064D016D8202B0DD00AD833F0100109D04B
:104C3000012384F83D30002384F83C30104638BD11
:104C4000302BF5D1826822F07002134343F0070342
:104C500028E0502BECD14A68CD68016A036A21F044
:104C60000A0123F00103036283690A4323F0F0037E
:104C700043EA051383610262836823F0700343F003
:104C800057030FE0B3F5805F0DD0B3F5005F0CD094
:104C9000702BCDD1CB68D1E90121FFF79DFF83684F
:104CA00043F0770383600022C2E7CB68D1E901219A
:104CB000FFF792FF836843F48043F3E7036A026AD5
:104CC0004D6822F01002C9680262826923F0A003D5
:104CD00022F4704243EA051342EA01328261036220
:104CE000836823F0700343F06703DBE74A68CD680D
:104CF000016A036A21F00A0123F001030362836958
:104D00000A4323F0F00343EA0513836102628368D8
:104D100023F0700343F04703C4E702468EE7000028
:104D200030B590F83C300246012B4FF0020022D003
:104D3000136882F83D005C680D6824F070042C4311
:104D400098685C600C4CA3420AD0B3F1804F07D046
:104D5000A4F59434A34203D004F58064A34204D1A3
:104D6000496820F08000014399600123002082F807
:104D70003D3082F83C0030BD002C014090F83C30C2
:104D80000246012B1ED0CB68886823F4407303438E
:104D9000486823F480630343086823F400630343F3
:104DA000086923F480530343486923F40053034301
:104DB0000020C96923F480430B4311684B6482F8D7
:104DC0003C0070470220704770477047026802F14C
:104DD0000C0353E8003F23F490730C3242E8003197
:104DE00002680029F2D102F1140353E8003F23F0D6
:104DF000010302F1140C4CE800310029F3D1036BDC
:104E0000012B0BD102F10C0353E8003F23F01003F8
:104E100002F10C0C4CE800310029F3D1202380F87A
:104E2000423000230363704710B504460368C1682D
:104E30001A6922F440520A431A6182680069D968EB
:104E40000243606921F4B05121F00C0102430A438E
:104E5000DA605A69A16922F440720A435A610E4A23
:104E6000934215D1FFF7ACFB1923434362682068D6
:104E70009200B3FBF2F36422B3FBF2F102FB1133B5
:104E80001B013233B3FBF2F303EB0113836010BD5C
:104E9000FFF786FBE8E700BF00380140F7B505469D
:104EA0000C4617461E462A68136834EA030301D1EC
:104EB000002021E0701CF7D0FEF724F9C01B8642C9
:104EC0001CD3DEB12B68DA685107ECD5802CEAD010
:104ED000402CE8D01A681207E5D5002401941A681E
:104EE000284601925B680193019BFFF76FFF08233F
:104EF00001206B6485F8404003B0F0BD0320FBE760
:104F000010B5044648B390F8413003F0FF021BB9D6
:104F100080F84020FCF7E8FC2423226884F8413024
:104F2000D368204623F40053D360FFF77DFF236846
:104F300000201A6922F490421A615A6922F02A026A
:104F40005A61DA6842F40052DA602023606484F81F
:104F5000413084F84230606310BD0120FCE72DE948
:104F6000F843984690F841300446202B0E461746E9
:104F70003FD100293FD0002A3DD0212300254564A0
:104F800080F84130FEF7BEF8A3688146B3F5805F34
:104F9000A784E78403D123690BB935461E46E38C09
:104FA0009BB253B943464A4640212046FFF776FF5D
:104FB000202350B984F841300AE043464A46802114
:104FC0002046FFF76BFF28B12023032084F84130EF
:104FD000BDE8F88322684EB935F8023BC3F30803F5
:104FE0005360E18C013989B2E184D8E716F8013BBE
:104FF000F6E70220ECE70120EAE710B50446226854
:1050000002F10C0353E8003F23F4F0730C3242E842
:10501000003123680029F2D103F1140252E8002F75
:1050200022F0010203F1140040E800210029F3D12D
:10503000226B012A0BD103F10C0252E8002F22F05F
:10504000100203F10C0040E800210029F3D15A6955
:1050500012061AD503F1140252E8002F22F0800242
:1050600003F1140040E800210029F3D1A06B60B1E6
:105070004163FEF721FD40B1A06BFEF717FE20282B
:1050800003D110230320636410BD226853695B06BB
:1050900016D502F1140353E8003F23F0400302F158
:1050A000140040E800310029F3D1E06B40B14163C6
:1050B000FEF702FD20B1E06BFEF7F8FD2028E0D0FE
:1050C00000202023E084E085606484F8423084F886
:1050D00041302063D8E7704708B50023406AC38594
:1050E000C384FDF7F9FB08BD90F8423007B5222BC9
:1050F00042D181680268B1F5805F836A3FD101695E
:1051000000293FD15268C2F3080223F8022B8362C0
:10511000C38D013B9BB2C385002B2DD10268D168A2
:1051200021F02001D160D16821F48071D1605169F2
:1051300021F001015161202280F842204363026B7B
:10514000012A026828D1036302F10C0353E8003FEF
:1051500023F0100302F10C0C4CE800310029F3D1CC
:105160001368DB0605D50191136801935368019319
:10517000019B818DFDF768FD03B05DF804FB39B933
:10518000016929B95268D2B21A70836A0133BEE745
:10519000526802F07F02F7E7FDF778FBECE70000CA
:1051A000036873B51A6804461607D9685D6908D1A3
:1051B000960668D58D0666D502B0BDE87040FFF74B
:1051C00093BF05F0010001F4907505435BD0D6074D
:1051D00005D5CD0542BF636C43F0010363645307FB
:1051E00004D518B1636C43F002036364960704D5D9
:1051F00018B1636C43F004036364150707D501F02D
:10520000200303431EBF636C43F008036364636CB5
:10521000002B32D0920604D58B0602D52046FFF72C
:1052200063FF266820467369626C03F0400302F056
:10523000080253EA020522D0FFF7C8FD73695E0633
:1052400018D5226802F1140353E8003F23F040030D
:10525000143242E800310029F3D1E06B50B1744BB5
:105260004363FEF749FC40B1E06B436B02B0BDE81D
:10527000704018472046FDF72FFB02B070BDFDF7C8
:105280002BFB6564F9E7206B012840F09480D5067C
:1052900040F19180C80640F18E80002201921A6888
:1052A00001925A680192019A5A6952064DD5E16BF2
:1052B0000A68526892B2002ADFD0A08D9042DCD9F1
:1052C000E2858A69202A36D003F10C0252E8002FC9
:1052D00022F4807203F10C0040E800210029F3D190
:1052E00003F1140252E8002F22F0010203F114002E
:1052F00040E800210029F3D103F1140252E8002F05
:1053000022F0400203F1140040E800210029F3D10B
:10531000202284F84220216303F10C0252E8002F7E
:1053200022F0100203F10C0040E800210029F3D123
:10533000E06BFEF7C1FB02236363E38DA18DC91A05
:1053400089B22046FDF780FC97E7E28DE08DA18DC4
:1053500080B292B2002890D0891A89B200298CD0EC
:1053600003F10C0252E8002F22F4907203F10C05B5
:1053700045E800200028F3D103F1140252E8002F81
:1053800022F0010203F1140545E800200028F3D1C2
:10539000202284F84220206303F10C0252E8002FFF
:1053A00022F0100203F10C0545E800200028F3D19B
:1053B00002236363C5E7160628D50D0626D594F8A3
:1053C0004120212A7FF459AFA168226AB1F5805F9C
:1053D00017D12169A9B932F8021BC1F3080159603C
:1053E0002262E28C013A92B2E284002A7FF445AF55
:1053F000DA6822F08002DA60DA6842F04002DA60AD
:105400003BE7511C216212785A60EAE750067FF5AB
:1054100034AF4A067FF531AFDA68204622F0400209
:10542000DA60202384F84130FFF755FE25E700BFFE
:10543000D95000080023C285436422238285026973
:1054400080F84230816203681AB1DA6842F48072EF
:10545000DA605A69002042F001025A61DA6842F0CB
:105460002002DA60704770B490F84260202E06D1B6
:1054700041B13AB10024046370BCFFF7DBBF0220E6
:1054800070BC70470120FBE773B590F8426004469A
:10549000202E24D111B9012002B070BD002AFAD00B
:1054A0000123036300234363FFF7C4FF0028F3D104
:1054B000236B012BEFD1226801901368019353688D
:1054C0000193019B02F10C0353E8003F43F01003EA
:1054D00002F10C0444E800310029F3D1DCE702209A
:1054E000DAE7002B2DE9F0471D46BBBF03F100436F
:1054F0001D4600232D2388B01446B8BF1446129AC7
:10550000109E1370149BDDF84CA023F02008B8F116
:10551000460F05D0B8F1450F00D10136022300E057
:10552000032307AA049206AACDE902A2CDE9003618
:1055300022462B4600F04CFEB8F1470F074619D122
:10554000119BDB070ED500EB060900220023204645
:105550002946FBF729FA08B1CDF81C903022079BA9
:105560004B451ED33846079B159ADB1B136008B0CA
:10557000BDE8F087B8F1460F00EB0609E5D10378E6
:10558000302B0AD10022002320462946FBF70CFAD3
:1055900018B9C6F10106CAF80060DAF8003099447B
:1055A000D3E7591C07911A70D9E7F7B50029B6BFA0
:1055B0002D232B23494209290270437029DD0DF167
:1055C00007031D460A27B1FBF7F61A4607FB161418
:1055D000303402F8014C0C46632C314603F1FF33A2
:1055E000F1DC3031941E03F8011C2346411CAB4210
:1055F0000AD30DF109039B1AAC4288BF0023023382
:105600000344181A03B0F0BD13F8016B01F8016FE1
:10561000EDE7302330318370C170031DF1E70000E6
:105620002DE9F04F91B00C46DDF8688016461F4614
:10563000054600F0BFFC036818460893FAF788FD9A
:1056400000230E93D8F800300990073323F00703A6
:1056500003F1080294F818A0D4F800B0C8F80020AC
:10566000D3E9008929F000430B93CDF828804FF04F
:10567000FF32DDE90A01C4E912899C4BFBF7C6F948
:1056800070BBDDE90A014FF0FF32984BFBF7A0F940
:1056900030BB0022002340464946FBF78FF910B18A
:1056A0002D2384F84330924A924BBAF1470F8CBFB6
:1056B0009046984603234FF0000923612BF0040322
:1056C000236033462146284600970FAA00F0D4F9FC
:1056D000013040F090804FF0FF3011B0BDE8F08F06
:1056E00042464B4640464946FBF790F948B14B4687
:1056F000002BB8BF2D23804AB8BF84F843307F4BBE
:10570000D3E763680AF0DF015A1C3FD106236360C8
:1057100000224BF48063236006920EAACDE904A216
:105720000DAA03920DF13302CDE9013263684246BE
:10573000009328464B460A91FFF7D3FE0A9980460C
:1057400047290D9928D1C81C02DB6368994240DDC6
:10575000AAF1020A5FFA8AFA5246013904F15000AE
:105760000D91FFF722FF0E9A81461318012A23613B
:1057700002DC2268D20701D5013323619DF8333062
:10578000002B9ED02D2384F843309AE74729BFD1C0
:10579000002BBDD10123BAE7BAF1650FDCD9BAF10C
:1057A000660F18D1002963680BDD216113B92268E7
:1057B000D00702D501330B4423614FF00009A165E6
:1057C000DCE713B92268D20701D50233F4E70123DD
:1057D000F2E74FF0670A0E9B994205DB23682161CF
:1057E000D807EAD54B1CE7E70029CCBF0122C1F15D
:1057F00002021344E0E723685A0507D423694246AE
:1058000031462846B84701302BD164E7BAF1650F1D
:1058100040F2DC80D4E9120100220023FBF7C4F837
:10582000002833D0012331462846354AB847013095
:105830003FF451AFDDE90D38434502DB2368D8075B
:105840000FD5DDE9082331462846B84701303FF43B
:1058500042AF4FF0000908F1FF3804F11A0AC845B9
:1058600009DC23689B0700F10281E0680F9B9842E6
:10587000B8BF184631E70123524631462846B8479B
:1058800001303FF428AF09F10109E8E70D9B002B37
:1058900038DC012331462846194AB84701303FF425
:1058A0001AAFDDE90D3959EA030302D12368D9079C
:1058B000D7D5DDE9082331462846B84701303FF403
:1058C0000AAF4FF0000A04F11A0B0D9B5B425345DF
:1058D00001DC4B4693E701235A4631462846B84738
:1058E00001303FF4F8AE0AF1010AEEE7FFFFEF7F67
:1058F000467E0008427E00084E7E00084A7E000870
:10590000527E0008A36DDDF838A05345A8BF53466A
:10591000002B994636DC4FF0000B29EAE97904F1B7
:105920001A02A36D0A93A3EB09035B4531DC0D9BBF
:105930009A453ADC2368DA0737D40D9BAAEB0309B2
:105940000A9BAAEB03039945A8BF9946B9F1000F3A
:1059500033DC4FF0000829EAE97904F11A0B0D9BBA
:10596000AAEB0303A3EB090343457FF77AAF0123B7
:105970005A4631462846B84701303FF4ACAE08F1EC
:105980000108ECE7424631462846B8470130C2D10B
:10599000A1E60123314628460A92B84701303FF478
:1059A0009AAE0A9A0BF1010BBBE73146DDE90823F9
:1059B0002846B8470130C0D18DE60A9A4B46314699
:1059C00028464244B8470130C3D184E6DDF838A008
:1059D000BAF1010F01DCDB0736D50123424631461F
:1059E0002846B84701303FF476AEDDE9082331465A
:1059F0002846B84701303FF46EAED4E912010022C8
:105A000000230AF1FF3AFAF7CFFFC0B9534608F175
:105A1000010231462846B84701300CD15BE601232C
:105A20005A4631462846B84701303FF454AE08F193
:105A30000108D045F3DB4B4604F15002E0E64FF09D
:105A4000000804F11A0BF4E701234246E1E70123C1
:105A50004A4631462846B84701303FF43CAE08F18B
:105A60000108E3680F995B1A4345F0DCFDE64FF04F
:105A7000000804F11909F4E72DE9F04716469846A5
:105A80008A680B6907469342B8BF1346336091F8A2
:105A900043200C46DDF820900AB1013333602368BF
:105AA000990642BF336802333360256815F0060556
:105AB00006D104F1190AE36832689B1AAB422BDC69
:105AC00094F843302268003B18BF0123920630D47B
:105AD0004146384604F14302C847013023D02368C9
