:020000040800F2
:1000000000500020F92D0008991400089B140008E6
:100010009D1400089F140008A114000800000000AF
:10002000000000000000000000000000A314000811
:10003000A514000800000000A7140008A914000877
:10004000412E0008412E0008412E0008412E0008D4
:10005000412E0008412E0008412E0008412E0008C4
:10006000412E0008412E0008412E0008AD14000862
:10007000412E0008412E0008412E0008412E0008A4
:10008000412E0008412E0008412E0008412E000894
:10009000B9140008C5140008C9140008412E00084E
:1000A000412E0008412E0008412E0008412E000874
:1000B000CD140008412E0008D9140008412E000874
:1000C000412E0008412E0008412E0008412E000854
:1000D000412E0008E5140008F1140008FD14000882
:1000E00009150008412E0008412E000800000000FC
:1000F0000000000000000000000000000000000000
:0C01000000000000000000005FF808F1A3
:1001100010B5054C237833B9044B13B10448AFF341
:1001200000800123237010BD780200200000000031
:10013000D47B000808B5034B1BB103490348AFF358
:10014000008008BD000000007C020020D47B000875
:10015000034613F8012B002AFBD1181A0138704707
:1001600081F0004102E000BF83F0004330B54FEA68
:1001700041044FEA430594EA050F08BF90EA020FD5
:100180001FBF54EA000C55EA020C7FEA645C7FEA68
:10019000655C00F0E2804FEA5454D4EB5555B8BF8B
:1001A0006D420CDD2C4480EA020281EA030382EAFC
:1001B000000083EA010180EA020281EA0303362D8E
:1001C00088BF30BD11F0004F4FEA01314FF4801C61
:1001D0004CEA113102D0404261EB410113F0004F73
:1001E0004FEA03334CEA133302D0524263EB43032A
:1001F00094EA050F00F0A780A4F10104D5F1200EC8
:100200000DDB02FA0EFC22FA05F2801841F1000122
:1002100003FA0EF2801843FA05F359410EE0A5F1F6
:1002200020050EF1200E012A03FA0EFC28BF4CF027
:10023000020C43FA05F3C01851EBE37101F00045DD
:1002400007D54FF0000EDCF1000C7EEB00006EEBEA
:100250000101B1F5801F1BD3B1F5001F0CD3490874
:100260005FEA30004FEA3C0C04F101044FEA4452CB
:1002700012F5800F80F09A80BCF1004F08BF5FEA52
:10028000500C50F1000041EB045141EA050130BD32
:100290005FEA4C0C404141EB0101013C28BFB1F544
:1002A000801FE9D291F0000F04BF01460020B1FA8F
:1002B00081F308BF2033A3F10B03B3F120020CDA62
:1002C0000C3208DD02F1140CC2F10C0201FA0CF040
:1002D00021FA02F10CE002F11402D8BFC2F1200CA5
:1002E00001FA02F120FA0CFCDCBF41EA0C0190405B
:1002F000E41AA2BF01EB0451294330BD6FEA0404A4
:100300001F3C1CDA0C340EDC04F11404C4F120028E
:1003100020FA04F001FA02F340EA030021FA04F3A0
:1003200045EA030130BDC4F10C04C4F1200220FAF7
:1003300002F001FA04F340EA0300294630BD21FA35
:1003400004F0294630BD94F0000F83F4801306BFFB
:1003500081F480110134013D4EE77FEA645C18BFEF
:100360007FEA655C29D094EA050F08BF90EA020F86
:1003700005D054EA000C04BF1946104630BD91EA7E
:10038000030F1EBF0021002030BD5FEA545C05D181
:100390004000494128BF41F0004130BD14F58004C0
:1003A0003CBF01F5801130BD01F0004545F0FE4134
:1003B00041F470014FF0000030BD7FEA645C1ABF69
:1003C000194610467FEA655C1CBF0B46024650EAA0
:1003D000013406BF52EA033591EA030F41F40021CC
:1003E00030BD00BF90F0000F04BF0021704730B552
:1003F0004FF4806404F132044FF000054FF0000127
:1004000050E700BF90F0000F04BF0021704730B5E7
:100410004FF4806404F1320410F0004548BF4042BC
:100420004FF000013EE700BF42004FEAE2014FEA11
:1004300031014FEA02701FBF12F07F4393F07F4FEC
:1004400081F06051704732F07F4208BF704793F0EF
:100450007F4F04BF41F40021704730B54FF4607402
:1004600001F0004521F000411CE700BF50EA010205
:1004700008BF704730B54FF000050AE050EA0102AE
:1004800008BF704730B511F0004502D5404261EB1E
:1004900041014FF4806404F132045FEA915C3FF45F
:1004A000D8AE4FF003025FEADC0C18BF03325FEAFC
:1004B000DC0C18BF033202EBDC02C2F1200300FAAD
:1004C00003FC20FA02F001FA03FE40EA0E0021FAD2
:1004D00002F11444BDE600BF70B54FF0FF0C4CF4C0
:1004E000E06C1CEA11541DBF1CEA135594EA0C0F72
:1004F00095EA0C0F00F0DEF82C4481EA030621EAAD
:100500004C5123EA4C5350EA013518BF52EA0335E7
:1005100041F4801143F4801338D0A0FB02CE4FF099
:100520000005E1FB02E506F00042E0FB03E54FF0C9
:100530000006E1FB03569CF0000F18BF4EF0010EC1
:10054000A4F1FF04B6F5007F64F5407404D25FEABD
:100550004E0E6D4146EB060642EAC62141EA555170
:100560004FEAC52040EA5E504FEACE2EB4F1FD0CB2
:1005700088BFBCF5E06F1ED8BEF1004F08BF5FEA30
:10058000500E50F1000041EB045170BD06F00046E2
:1005900046EA010140EA020081EA0301B4EB5C048F
:1005A000C2BFD4EB0C0541EA045170BD41F4801187
:1005B0004FF0000E013C00F3AB8014F1360FDEBFAC
:1005C000002001F0004170BDC4F10004203C35DA88
:1005D0000C341BDC04F11404C4F1200500FA05F30B
:1005E00020FA04F001FA05F240EA020001F00042AC
:1005F00021F0004110EBD37021FA04F642EB060122
:100600005EEA430E08BF20EAD37070BDC4F10C044B
:10061000C4F1200500FA04F320FA05F001FA04F20F
:1006200040EA020001F0004110EBD37041F10001FB
:100630005EEA430E08BF20EAD37070BDC4F1200506
:1006400000FA05F24EEA020E20FA04F301FA05F26E
:1006500043EA020321FA04F001F0004121FA04F216
:1006600020EA020000EBD3705EEA430E08BF20EAE6
:10067000D37070BD94F0000F0FD101F00046400020
:1006800041EB010111F4801F08BF013CF7D041EAA2
:10069000060195F0000F18BF704703F000465200A6
:1006A00043EB030313F4801F08BF013DF7D043EA77
:1006B0000603704794EA0C0F0CEA135518BF95EA2D
:1006C0000C0F0CD050EA410618BF52EA4306D1D1B4
:1006D00081EA030101F000414FF0000070BD50EAD3
:1006E000410606BF1046194652EA430619D094EA5D
:1006F0000C0F02D150EA013613D195EA0C0F05D147
:1007000052EA03361CBF104619460AD181EA03019A
:1007100001F0004141F0FE4141F470014FF0000052
:1007200070BD41F0FE4141F4780170BD70B54FF0ED
:10073000FF0C4CF4E06C1CEA11541DBF1CEA13556D
:1007400094EA0C0F95EA0C0F00F0A7F8A4EB05044F
:1007500081EA030E52EA03354FEA013100F0888046
:100760004FEA03334FF0805545EA131343EA12630F
:100770004FEA022245EA111545EA10654FEA0026C4
:100780000EF000419D4208BF964244F1FD0404F57D
:10079000407402D25B084FEA3202B61A65EB0305D9
:1007A0005B084FEA32024FF480104FF4002CB6EB96
:1007B000020E75EB030E22BFB61A754640EA0C0016
:1007C0005B084FEA3202B6EB020E75EB030E22BF56
:1007D000B61A754640EA5C005B084FEA3202B6EB97
:1007E000020E75EB030E22BFB61A754640EA9C0056
:1007F0005B084FEA3202B6EB020E75EB030E22BF26
:10080000B61A754640EADC0055EA060E18D04FEAE3
:10081000051545EA16754FEA06164FEAC30343EA83
:1008200052734FEAC2025FEA1C1CC0D111F4801F50
:100830000BD141EA00014FF000004FF0004CB6E749
:1008400011F4801F04BF01430020B4F1FD0C88BFE8
:10085000BCF5E06F3FF6AFAEB5EB030C04BFB6EBF3
:10086000020C5FEA500C50F1000041EB045170BDE6
:100870000EF0004E4EEA113114EB5C04C2BFD4EB13
:100880000C0541EA045170BD41F480114FF0000E97
:10089000013C90E645EA060E8DE60CEA135594EA13
:1008A0000C0F08BF95EA0C0F3FF43BAF94EA0C0F16
:1008B0000AD150EA01347FF434AF95EA0C0F7FF48B
:1008C00025AF104619462CE795EA0C0F06D152EADF
:1008D00003353FF4FDAE1046194622E750EA4106C3
:1008E00018BF52EA43067FF4C5AE50EA41047FF4D4
:1008F0000DAF52EA43057FF4EBAE12E74FF0FF3C39
:1009000006E000BF4FF0010C02E000BF4FF0010C09
:100910004DF804CD4FEA410C7FEA6C5C4FEA430C82
:1009200018BF7FEA6C5C1BD001B050EA410C0CBFD1
:1009300052EA430C91EA030F02BF90EA020F002033
:10094000704710F1000F91EA030F58BF994208BF9A
:1009500090422CBFD8176FEAE37040F00100704757
:100960004FEA410C7FEA6C5C02D150EA013C07D1AE
:100970004FEA430C7FEA6C5CD6D152EA033CD3D0F9
:100980005DF8040B704700BF8446104662468C46F3
:100990001946634600E000BF01B5FFF7B7FF002826
:1009A00048BF10F1000F01BD4DF808EDFFF7F4FF4F
:1009B0000CBF012000205DF808FB00BF4DF808EDDA
:1009C000FFF7EAFF34BF012000205DF808FB00BFFD
:1009D0004DF808EDFFF7E0FF94BF012000205DF81F
:1009E00008FB00BF4DF808EDFFF7CEFF94BF0120D4
:1009F00000205DF808FB00BF4DF808EDFFF7C4FFCD
:100A000034BF012000205DF808FB00BF4FEA410C15
:100A10007FEA6C5C02D150EA013C0AD14FEA430CF8
:100A20007FEA6C5C02D152EA033C02D14FF0000035
:100A300070474FF0010070474FEA410212F5001273
:100A400015D211D56FF47873B3EB625212D94FEA15
:100A5000C12343F0004343EA505311F0004F23FAFF
:100A600002F018BF404270474FF00000704750EA54
:100A7000013005D111F0004008BF6FF00040704711
:100A80004FF00000704700BF80F0004002E000BF60
:100A900081F0004142001FBF5FEA410392EA030F69
:100AA0007FEA226C7FEA236C6AD04FEA1262D2EBB3
:100AB0001363C1BFD218414048404140B8BF5B42B8
:100AC000192B88BF704710F0004F40F4000020F051
:100AD0007F4018BF404211F0004F41F4000121F067
:100AE0007F4118BF494292EA030F3FD0A2F10102B1
:100AF00041FA03FC10EB0C00C3F1200301FA03F1EF
:100B000000F0004302D5494260EB4000B0F5000F11
:100B100013D3B0F1807F06D340084FEA310102F1D0
:100B20000102FE2A51D2B1F1004F40EBC25008BF82
:100B300020F0010040EA03007047490040EB00004C
:100B4000013A28BFB0F5000FEDD2B0FA80FCACF14D
:100B5000080CB2EB0C0200FA0CF0AABF00EBC2507A
:100B600052421843BCBFD0401843704792F0000F68
:100B700081F4000106BF80F400000132013BB5E7BB
:100B80004FEA41037FEA226C18BF7FEA236C21D031
:100B900092EA030F04D092F0000F08BF0846704796
:100BA00090EA010F1CBF0020704712F07F4F04D164
:100BB000400028BF40F00040704712F100723CBF77
:100BC00000F50000704700F0004343F0FE4040F4A1
:100BD000000070477FEA226216BF08467FEA23635F
:100BE0000146420206BF5FEA412390EA010F40F44A
:100BF000800070474FF0000304E000BF10F0004396
:100C000048BF40425FEA000C08BF704743F096437C
:100C100001464FF000001CE050EA010208BF704797
:100C20004FF000030AE000BF50EA010208BF70471E
:100C300011F0004302D5404261EB41015FEA010C33
:100C400002BF84460146002043F0B64308BFA3F12B
:100C50008053A3F50003BCFA8CF2083AA3EBC2530D
:100C600010DB01FA02FC634400FA02FCC2F120022C
:100C7000BCF1004F20FA02F243EB020008BF20F063
:100C80000100704702F1200201FA02FCC2F12002C9
:100C900050EA4C0021FA02F243EB020008BF20EABE
:100CA000DC7070474FF0FF0C1CEAD0521EBF1CEAEC
:100CB000D15392EA0C0F93EA0C0F6FD01A4480EADA
:100CC000010C400218BF5FEA41211ED04FF00063C3
:100CD00043EA501043EA5111A0FB01310CF00040EF
:100CE000B1F5000F3EBF490041EAD3715B0040EA15
:100CF000010062F17F02FD2A1DD8B3F1004F40EBE5
:100D0000C25008BF20F00100704790F0000F0CF0B7
:100D1000004C08BF49024CEA502040EA51207F3A7B
:100D2000C2BFD2F1FF0340EAC250704740F4000056
:100D30004FF00003013A5DDC12F1190FDCBF00F047
:100D400000407047C2F10002410021FA02F1C2F1F5
:100D5000200200FA02FC5FEA310040F1000053EA91
:100D60004C0308BF20EADC70704792F0000F00F0DF
:100D7000004C02BF400010F4000F013AF9D040EAE5
:100D80000C0093F0000F01F0004C02BF490011F479
:100D9000000F013BF9D041EA0C018FE70CEAD15377
:100DA00092EA0C0F18BF93EA0C0F0AD030F0004CF7
:100DB00018BF31F0004CD8D180EA010000F00040AB
:100DC000704790F0000F17BF90F0004F084691F069
:100DD000000F91F0004F14D092EA0C0F01D14202A3
:100DE0000FD193EA0C0F03D14B0218BF084608D16C
:100DF00080EA010000F0004040F0FE4040F40000B6
:100E0000704740F0FE4040F4400070474FF0FF0C48
:100E10001CEAD0521EBF1CEAD15392EA0C0F93EA8F
:100E20000C0F69D0A2EB030280EA010C49024FEAE1
:100E3000402037D04FF0805343EA111143EA10139A
:100E40000CF000408B4238BF5B0042F17D024FF452
:100E5000000C8B4224BF5B1A40EA0C00B3EB510F2D
:100E600024BFA3EB510340EA5C00B3EB910F24BF16
:100E7000A3EB910340EA9C00B3EBD10F24BFA3EB9B
:100E8000D10340EADC001B0118BF5FEA1C1CE0D163
:100E9000FD2A3FF650AF8B4240EBC25008BF20F016
:100EA000010070470CF0004C4CEA50207F32C2BF6A
:100EB000D2F1FF0340EAC250704740F400004FF007
:100EC0000003013A37E792F0000F00F0004C02BF38
:100ED000400010F4000F013AF9D040EA0C0093F002
:100EE000000F01F0004C02BF490011F4000F013B5C
:100EF000F9D041EA0C0195E70CEAD15392EA0C0FC4
:100F000008D142027FF47DAF93EA0C0F7FF470AFFB
:100F1000084676E793EA0C0F04D14B023FF44CAF3E
:100F200008466EE730F0004C18BF31F0004CCAD1D3
:100F300030F000427FF45CAF31F000437FF43CAF0F
:100F40005FE700BF4FF0FF3C06E000BF4FF0010C31
:100F500002E000BF4FF0010C4DF804CD4FEA400213
:100F60004FEA41037FEA226C18BF7FEA236C11D05D
:100F700001B052EA530C18BF90EA010F58BFB2EB10
:100F8000030088BFC81738BF6FEAE17018BF40F090
:100F9000010070477FEA226C02D15FEA402C05D144
:100FA0007FEA236CE4D15FEA412CE1D05DF8040BC9
:100FB000704700BF844608466146FFE70FB5FFF75C
:100FC000C9FF002848BF10F1000F0FBD4DF808ED14
:100FD000FFF7F4FF0CBF012000205DF808FB00BF05
:100FE0004DF808EDFFF7EAFF34BF012000205DF85F
:100FF00008FB00BF4DF808EDFFF7E0FF94BF0120AC
:1010000000205DF808FB00BF4DF808EDFFF7D2FFA8
:1010100094BF012000205DF808FB00BF4DF808EDEB
:10102000FFF7C8FF34BF012000205DF808FB00BFB8
:101030004FEA4002B2F1FE4F0FD34FF09E03B3EBE5
:1010400012620DD94FEA002343F0004310F0004F25
:1010500023FA02F018BF404270474FF0000070477B
:1010600012F1610F01D1420205D110F0004008BF1A
:101070006FF0004070474FF0000070471148124B6E
:1010800030B50024012503604FF4602385B0CDE91D
:1010900001440394846005730475C3614460056171
:1010A00001F0CEFF08B100F0D3F90523054801A9EE
:1010B000CDE90145039301F01FFF08B100F0C8F925
:1010C00005B030BD940200200024014030B5054633
:1010D00087B01022002102A804F039FE2A681D4BB7
:1010E0009A4234D103F56C439A691B4842F400726A
:1010F0009A619A6902A902F400720092009A9A69B0
:10110000164C42F004029A619B69012203F0040329
:101110000193019B0323CDE9022302F0D7FD802038
:101120004FF480720023C4E903024FF4806C202244
:101130000B492046C4E90013C4E905C2A360E3617A
:1011400002F06EFB08B100F083F92C62656207B013
:1011500030BD00BF0024014000080140C40200204F
:101160000800024008B504230D480E4A4FF4302110
:10117000C0E9002300234FF04072C0E902324FF46F
:101180008002C0E904124FF001228383826101F0E2
:10119000D5FF18B1BDE8084000F05AB908BD00BF3E
:1011A000080300200064004010B5044686B01022F9
:1011B000002102A804F0CBFD2268214B9A423DD1C8
:1011C00003F5D633DA691F4842F00072DA61DA6952
:1011D00002A902F000720092009A9A6942F0040299
:1011E0009A619B6903F004030193019B4FF4006330
:1011F000029302F06BFD4FF480520223CDE90223EB
:101200000323104802A9059302F060FD0022142078
:10121000114602F0B3FA142002F0E0FA0022152081
:10122000114602F0ABFA152002F0D8FA002216207F
:10123000114602F0A3FA162002F0D0FA06B010BD53
:1012400000640040000801400A4B07B55A690B20B2
:1012500042F001025A6100225B69114603F001036A
:101260000193019B02F08AFA0B2003B05DF804EBB6
:1012700002F0B4BA0010024010222DE9F04188B00B
:101280000DEB0200002104F062FD2A4BDFF8A8807C
:101290009A692A4D42F020029A619A69404602F00A
:1012A00020020192019A9A6948F2C00142F00402B8
:1012B0009A619A69002402F004020292029A9A69E1
:1012C000012742F008029A619B69002203F008039B
:1012D0000393039B02F0DAFD00222846C82102F0A6
:1012E000D5FD022648F2C003404604A9CDE90437E3
:1012F000CDE9064602F0EAFC4FF4E042104B2846E6
:1013000004A9CDE90423069402F0E0FCC823284692
:1013100004A9CDE90437CDE9064602F0D7FC224600
:101320002146282002F02AFA282002F057FA08B0B5
:10133000BDE8F0810010024000080140000C0140AF
:101340000000311010B594B0142200210CA804F054
:10135000FEFC142200210DEB020004F0F8FC102228
:10136000002101A804F0F3FC02244FF48033012291
:10137000CDE91143CDE90A234FF4E0130AA80E92F8
:10138000139302F09DFD08B172B6FEE70F23CDE97D
:1013900005344FF480630790CDE90830214605A855
:1013A00002F050FF08B172B6FEE74FF4004301A807
:1013B0000194039303F002F808B172B6FEE714B08B
:1013C00010BD000007B501F061FDFFF7BBFF00F0A5
:1013D00037FB142001F07EFDFFF74EFFFFF734FFCF
:1013E000FFF74CFEFFF7BEFE00F02EF900F0D4F937
:1013F00000F026FA00F040FA00F05AFA00F0EEF899
:1014000000F034FB0F4803F0C7F80A2001F062FD3A
:10141000802300930C4B402219460C4801F030FA0F
:1014200000F0D4FF01F002FB01F02AFC01F0B0FA59
:1014300001F0D8FB01F04CFC01F028F9082001F084
:1014400049FDF3E7C4030020000C0140E80600203A
:1014500072B6FEE70E4B82B09A6942F001029A61C1
:101460009A6902F001020092009ADA6942F0805211
:10147000DA61DB69074A03F080530193019B5368EB
:1014800023F0E06343F00073536002B0704700BF85
:101490000010024000000140FEE7FEE7FEE7FEE725
:1014A000FEE770477047704701F002BD014802F047
:1014B00051BA00BFC4020020014802F04FB800BF7B
:1014C00008030020FFF7F8BFFFF7F6BF014803F05D
:1014D000B7B800BF7C030020014803F0B1B800BFDB
:1014E000C4030020014803F03FBD00BF0C040020EE
:1014F000014803F039BD00BF54040020014803F047
:1015000033BD00BF9C04002008B54FF4805002F0AA
:10151000CBFC4FF4005002F0C7FCBDE808404FF48C
:10152000804002F0C1BC0120704708B504F062FCA5
:10153000162303604FF0FF3008BD08B504F05AFCD5
:1015400016230360FEE770B50D4614460E46731B66
:101550009C4201DC204670BDAFF3008006F8010B11
:10156000F5E770B50D4614460E46731B9C4201DC30
:10157000204670BD16F8010BAFF30080F5E74FF081
:10158000FF3070474FF4005300204B60704701203C
:1015900070470020704700000B4A0346116810B5E1
:1015A00009B90A491160106809490A4C0344091B2A
:1015B0008B4206D904F01EFC0C2303604FF0FF3071
:1015C00010BD1360FCE700BF30030020200A00209C
:1015D0000050002000040000704700007FB510227A
:1015E000002102A804F0B3FB40F2CF224FF080416B
:1015F00014480023C0E9001240F2E732CDE900337D
:10160000C0E9032383608023836103F0EDF808B110
:10161000FFF71EFF4FF480530A4802A9029303F01C
:10162000CAF908B1FFF714FF002369460548CDE960
:10163000003303F059FA08B1FFF70AFF07B05DF86D
:1016400004FB00BF7C0300207FB51022002102A80C
:1016500004F07DFB4722154815490023C0E900121C
:101660004FF6FF72CDE90033C0E903238360802386
:10167000836103F0B9F808B1FFF7EAFE4FF4805335
:101680000A4802A9029303F096F908B1FFF7E0FEB9
:10169000002369460548CDE9003303F025FA08B177
:1016A000FFF7D6FE07B05DF804FB00BFC4030020BF
:1016B000000800400268084B82B09A420AD103F544
:1016C00064439A6942F400629A619B6903F400637F
:1016D0000193019B02B07047002C0140036807B5DD
:1016E000B3F1804F15D103F50433DA691C2042F0C1
:1016F0000102DA610022DB69114603F00103009365
:10170000009B02F03BF81C2003B05DF804EB02F0F4
:1017100065B80B4A934210D10A4B1E20DA6942F099
:101720000402DA610022DB69114603F0040301932D
:10173000019B02F023F81E20E6E703B05DF804FBEE
:10174000000800400010024010B5044686B0102288
:10175000002102A804F0FBFA22680D4B9A4214D132
:1017600003F564439A690B4842F004029A619B694D
:101770004FF4807203F004030193019B022302A93A
:10178000CDE90223059302F0A1FA06B010BD00BF17
:10179000002C01400008014010B5002492B01C222A
:1017A000214603A8CDE9014404F0D1FA20222146C4
:1017B0000AA804F0CCFA01231F48204AC0E90544D6
:1017C000C0E9002340F60F638460C0E9033403F0EE
:1017D00037F808B1FFF73CFE174801A9CDE90144ED
:1017E00003F082F908B1FFF733FE0024602322469C
:1017F000114803A9CDE90334CDE90544CDE90744F7
:10180000099403F075F808B1FFF722FE4FF4005376
:1018100009480AA9CDE90A44CDE90C440E940F9376
:10182000119403F08FF908B1FFF712FE0248FFF799
:101830008BFF12B010BD00BF34030020002C01400C
:1018400008B54FF4E1330A480A4AC0E900230023EF
:101850000C22C0E90233C0E905230361C36103F030
:1018600033FA18B1BDE80840FFF7F2BD08BD00BF6C
:101870000C0400200038014008B54FF4E1330A4859
:101880000A4AC0E9002300230C22C0E90233C0E960
:1018900005230361C36103F017FA18B1BDE80840DE
:1018A000FFF7D6BD08BD00BF54040020004400402F
:1018B00008B54FF4E1330A480A4AC0E9002300237F
:1018C0000C22C0E90233C0E905230361C36103F0C0
:1018D000FBF918B1BDE80840FFF7BABD08BD00BF6D
:1018E0009C0400200048004010B504468AB0102235
:1018F000002106A804F02BFA23684B4A934231D109
:101900004A4B4FF400709A6906A942F480429A61EA
:101910009A69002402F480420092009A9A6942F087
:1019200004029A619B6903F004030193019B022363
:10193000CDE9060303233E48099302F0C7F94FF4AB
:1019400080633B4806A9CDE90634089402F0BEF94D
:1019500025202246214601F011FF252001F03EFFFF
:101960000AB010BD334A93422CD1304B0421DA69BE
:101970002F4842F40032DA61DA69002402F40032BE
:101980000292029A9A6942F004029A619B6903F0FA
:1019900004030393039B0223CDE90613032306A943
:1019A000099302F093F90823214806A9CDE90634EA
:1019B000089402F08BF926202246214601F0DEFE33
:1019C0002620CBE71C4A9342CAD1184B1B48DA6940
:1019D00006A942F48022DA61DA69002402F4802246
:1019E0000492049A9A6942F008029A619B694FF442
:1019F000806203F008030593059B0223CDE90623CB
:101A00000323099302F062F94FF400630B4806A91F
:101A1000CDE90634089402F059F927202246012125
:101A200001F0ACFE272099E7003801400010024089
:101A3000000801400044004000480040000C014004
:101A400008B5074A074B1A602822074B1A8002F094
:101A50003FF800F097F9BDE8084002F04BB800BF2E
:101A60004E000020E8040020E404002038B5654D55
:101A7000654C2946208800F05DF9A91C608800F0BB
:101A800059F9291DA08800F055F9A91DE08800F03A
:101A900051F905F10801208900F04CF905F10A011E
:101AA000608900F047F905F10B01A08900F042F9C7
:101AB00005F10C01E08900F03DF905F10E01208AE5
:101AC00000F038F905F11001608A00F033F905F1F2
:101AD0001201A08A00F02EF905F11401E08A00F04D
:101AE00029F905F11601208B00F024F905F1180100
:101AF000608B00F01FF905F11A01A08B00F01AF9B4
:101B000005F11C01E08B00F015F905F11E01208C98
:101B100000F010F905F12001608C00F00BF905F1DF
:101B20002201A08C00F006F905F12401E08C00F000
:101B300001F905F12601208D00F0FCF805F12801DE
:101B4000608D00F0F7F805F12A01A08D00F0F2F8A1
:101B500005F12C01E08D00F0EDF805F12E01208E4D
:101B600000F0E8F805F13001608E00F0E3F805F1CF
:101B70003201A08E00F0DEF805F13401E08E00F0B5
:101B8000D9F805F13601208F00F0D4F805F13801BD
:101B9000608F00F0CFF805F13A01A08F00F0CAF88D
:101BA00005F13B01E08F00F0C5F805F13C01B4F808
:101BB000400000F0BFF805F13D01B4F8420000F02C
:101BC000B9F805F13E01B4F8440000F0B3F805F1AE
:101BD0004001B4F8460000F0ADF805F14201B4F858
:101BE000480000F0A7F805F14401B4F84A0000F0FD
:101BF000A1F8B4F84C0005F14601BDE8384000F00A
:101C000099B800BF040000204E00002008B5431E14
:101C1000DBB2FC2B014609D8054B9872054B58895D
:101C200000F07EF9B0FA80F0400908BD0020FCE722
:101C3000040000204E0000204FF6FF71064A90423B
:101C400001D30120704703889BB28B4201D104303D
:101C5000F5E70020704700BF00FC000838B51C4BBA
:101C60000446188803F580631B880A469BB280B23D
:101C70007BB94EF6EE63C31A18BF01239B021548C9
:101C800003F1006505F578451844854208D38020A6
:101C900011E0D0B94EF6EE61591A4B424B41EDE7D7
:101CA0002B6801330FD100232946012001F056FF94
:101CB000034608B180B238BD22460120A91C01F0BC
:101CC0004DFF80B2F7E70435DFE7AB20F3E700BF55
:101CD00000F80008FEFB0008002310B586B0CDE92F
:101CE000013301231148CDE90403FFF7A5FF90B1AB
:101CF0000022002301200D4901F030FF044688B97D
:101D00000B480490FFF798FF60B901A902A801F001
:101D100089FF044606E001A902A801F083FF0446FA
:101D20000028E5D0204606B010BD00BF00F800082E
:101D300000FC0008104B10B51A8803F580631B885F
:101D400092B29BB20AB1ABB901220C4B0C4C03EB23
:101D5000822304EB82229A4201D3012007E01C88EF
:101D6000A4B2844204D1002033F8023C0B8010BDA1
:101D7000043BF0E7AB20FAE700F80008FEFB0008A0
:101D800002F8000800232DE9F04786B0CDE90133C1
:101D900001234EF6EE615D4E5D4D3488CDE904635E
:101DA000A4B22B888C429BB22AD04FF6FF72944289
:101DB00005D00CB9002B6DD1FFF78EFF1DE04BB99C
:101DC0003046FFF739FF002800F09A80002006B067
:101DD000BDE8F0878B42EFD13046FFF72DFF30B9D9
:101DE00001A902A801F01EFF08B180B2EFE70022AE
:101DF00000234749012001F0B1FE0028E6D0F4E7B6
:101E0000002B3FD04FF6FF729342D5D12846049560
:101E1000FFF712FF28B901A902A801F003FF00286B
:101E2000E3D1002200233949E4E7D9F800A0A5B2A4
:101E3000F3883AF815009BB2834208BF27B2BD422F
:101E400013D10134B8F80020A3B29A42EDD8002291
:101E5000002301202D4901F081FE0028C5D1029008
:101E60002B48012304900593ABE72A49FFF762FF53
:101E70000128E6D009883AF81500FFF7EFFE0028A0
:101E8000DFD0A4E71C464FF0FF37DFF88C80DFF887
:101E90008C90D7E793422CD12846049591E7D9F846
:101EA00000A0A6B2EB883AF816009BB2834208BFA6
:101EB00027B2BE4210D10134B8F80020A3B29A4232
:101EC000EDD8002200230120114901F047FE00282F
:101ED0008BD102900D48C4E70E49FFF72BFF012874
:101EE000E9D009883AF81600FFF7B8FE0028E2D0DA
:101EF0006DE74FF0FF37DFF82080DFF82090DBE759
:101F000001A902A801F08EFE77E700BF00F80008E3
:101F100000FC0008EC040020E4040020E804002099
:101F20002DE9F04F0646884689B001F0D1FD4146C3
:101F30003046FFF793FE802804463CD100230393EC
:101F40002F4B304D19882A8889B292B269B1002A84
:101F500053D12F461D464EF6EE620023294601203E
:101F600001F0FCFD18B184B225E01F46F3E74146BD
:101F70003046FFF773FE0446E8B98346DFF88890E1
:101F8000DFF888A0224B1A881FFA8BF39A4218D8E0
:101F90000023012603A904A804930697079601F0DD
:101FA00041FE0028DFD1002200232946304601F0FF
:101FB000D5FD0028D7D101F09DFD204609B0BDE830
:101FC000F08FD9F800301FFA8BF833F818008642EA
:101FD00002D10BF1010BD5E70C490193FFF7AAFEE3
:101FE0000128F6D0019BBAF8001033F81800FFF76B
:101FF00035FE0028EDD00446DDE7AB24DBE700BF6B
:1020000000F8000800FC0008E8040020EC040020B0
:10201000E404002038B131B1012A82BF0023C0E9B5
:102020000012C0E902337047F0B540B111B38368C4
:10203000046800271C4413464D1E0BB9D01AF0BD8E
:102040008168C66801318E42F8D0D0F804C08C4552
:1020500001D1002EF2D015F8016F013B26704668C1
:102060008E4215BF81680468013187601CBF8160A2
:102070000134E2E70846E2E7F0B5044608460BB152
:1020800000211970F4B148B1D4E90231994219D054
:10209000236800260B44114609B9501AF0BDD4E953
:1020A0000257AF4293F800C0F7D000F801CBE568C3
:1020B00067680135BD42E56006BF2368E66001330D
:1020C0000139E9E70020E9E737B50F4D04462868F4
:1020D00001F099F90023A8B122460C49C1E9013366
:1020E00023790B6152F8053BC3F30A009B0B03F005
:1020F00002030860CB60286801AB01F038F9B0FA40
:1021000080F0400903B030BD1C060020A806002066
:102110001FB5114C0DF10503224601F088F9034665
:10212000C0B90E4A917A22688A420ED1E168881EAF
:102130004142414142EAC1320092226969468DF82A
:10214000042007481022FFF76FFF4FF400510548A5
:1021500001F0A1FE04B010BD8C0600200400002098
:102160002C0600200010014008B530B101F0D1F874
:1021700018B90122014B83F86C2008BD1C06002011
:1021800070B50024204D8AB006464FF496721F4960
:10219000286005F110006C6085F86C40FFF73AFF8D
:1021A0000123042285F8354085F86D3085F84540D7
:1021B00085F86E4085F8554085F865401449AA8435
:1021C000326807938A4214BF0E22224608930E23D8
:1021D00069463046CDE90524CDE90044CDE9024405
:1021E000AC81AC600494099301F023F848B9132141
:1021F000304601F09AF9001B18BF012040420AB096
:1022000070BD4FF0FF30FAE71C060020EE040020FE
:102210000064004070B5437B0546114C03F0FF0697
:1022200043B194F86D301BB9636843F008036360F1
:102230006FF00806EFF31083A36672B62846FFF727
:1022400043FF38B1AB7B84F86E30A36E83F3108804
:10225000304670BD01236B73A3890133A381F4E77A
:102260001C060020F0B5EFF31082144B9A6672B68C
:1022700093F86E201AB1002283F86E20012299890A
:1022800029B100252E469C8C54B905B19981996ECF
:1022900081F310881AB15A6842F080025A60F0BD8A
:1022A000E01C03EB0010477937B1877927B101258E
:1022B00002220139467189B2013CE5E71C06002083
:1022C000104A13681B689969936801F007008342FC
:1022D00006D090604807938803D543F00403536009
:1022E000704723F4417323F00303C80744BF43F44A
:1022F000807343F00103890744BF43F4007343F044
:102300000203ECE71C060020034B93F86C3013B17A
:102310000021FFF7FDBE70471C060020034B93F819
:102320006C3013B10121FFF7F3BE70471C0600208B
:10233000F8B50027124CA38984F86D7084F86E708C
:102340005BB1EFF31083A36672B6A58C04F1280687
:1023500025B9A581A36E83F31088F8BD737B53B1B3
:102360003046FFF7B1FE30B17773A389013BA381FB
:10237000B37B84F86E30013DADB21036E8E700BFA4
:102380001C0600200121FFF7D3BFFFF7FBBFFFF7BB
:10239000F9BF00000B4A014608B5D2E906301B1A06
:1023A00044BF52699B180F2B09D9002310220648FD
:1023B000FFF762FE0F2894BF0020012008BD002017
:1023C000FCE700BF1C0600202C06002010B5064CC0
:1023D000FA212046FFF7D4FE2046FFF7C5FE002273
:1023E000024B1A7010BD00BF08030020E106002058
:1023F000012308488362062380F82C30064B2830DE
:102400009B7A437140238371044B1B68C0F80730EB
:10241000FFF700BF1C060020040000200407002076
:1024200001220E4B9A62062283F82C200C4A83F874
:102430002F00927A03F1280083F82D20412283F89F
:102440002E20084A117883F830105178927883F85A
:10245000311083F83220FFF7DDBE00BF1C060020DC
:1024600004000020E2060020012370B52F4C422218
:10247000A362062384F82C302D4B2E4E9B7A84F8D1
:102480002E20962B84F82D3001D0A02B1ED10423B2
:102490002949B06884F82C30FEF704FC0021054679
:1024A000FEF7B2FD4FF07C5160B12846FEF7F2FA1C
:1024B000FEF7BEFD00B2A4F82F002048BDE8704032
:1024C000FFF7A8BE2846FEF7E3FAF1E71A4970685D
:1024D000FEF7E8FB00210546FEF796FD4FF07C5124
:1024E000E8B12846FEF7D6FAFEF7A2FD00B212497F
:1024F000A4F82F003068FEF7D5FBFEF799FD05B272
:102500002846FEF77BFB002D4FF07C510BDBFEF7DE
:10251000C1FAFEF78DFD00B2A4F83100CDE72846E0
:10252000FEF7B6FAE0E7FEF7B3FAF2E71C06002082
:1025300004000020140700200000C84244060020C8
:10254000012370B5224C4422A362062384F82C3068
:10255000204B84F82E209B7A962B84F82D3036D091
:10256000A02B34D01C4E1D49F068FEF79BFB0021C8
:102570000546FEF749FD4FF07C5108B32846FEF7AB
:1025800089FAFEF755FD00B21449A4F82F0030690E
:10259000FEF788FBFEF74CFD05B22846FEF72EFB42
:1025A000002D4FF07C510FDBFEF774FAFEF740FD73
:1025B00000B2A4F831000A48BDE87040FFF72ABE17
:1025C0002846FEF765FADCE7FEF762FAEEE770BD33
:1025D0001C06002004000020140700200000C84250
:1025E0004406002001230A488362052380F82C302A
:1025F000084B28309B7A437145238371064B1B8817
:10260000A0F80730054B1B784372FFF703BE00BFED
:102610001C060020040000206A0800206C0800202E
:10262000134B02689B7A9A4212D14379102B10D037
:10263000152B07D0012B0BD18379012B08D1C07941
:10264000FFF7E4BA82790B4BFF2A08BF0D221A80EC
:1026500070478279084B1A80C279084B1A80027A37
:10266000074B1A80427A074B1A80827A064BEEE7B4
:10267000040000209E000020A6000020A8000020EA
:10268000A4000020A0000020A2000020F0B52A4BEA
:102690002A4C1A88236885B09A429CBF0023236085
:1026A000FFF70EFEFFF7DEFD6846FFF773FE10B181
:1026B0006846FFF7B5FF224B1B8823B1226893427F
:1026C00001D1FFF795FE00F0FFFB1E4B05461B886E
:1026D0001D4E2BB31D4F3B7813B33878FFF7A0FE88
:1026E00000233B7035601A4B1B8823B1226893424C
:1026F00001D1FFF7B9FE174B1B8823B12268934223
:1027000001D1FFF71DFF144B1B8823B122689342B0
:1027100001D1FFF767FF23680133236005B0F0BDE7
:102720003368EB1AB3F5C87FDDD900F063F80020F9
:10273000FFF776FED6E700BF9E000020C40600200B
:10274000A6000020A8000020C0060020E10600200E
:10275000A4000020A0000020A200002038B50E4CEC
:1027600003682268126893420ED1002301220B49AC
:102770000B48FFF759FC094D01222946206802F059
:1027800056FD0228F8D038BD064A9342FBD1BDE879
:10279000384000F001BB00BFC8060020E006002062
:1027A000CC0600200048004013B5104C02680346D8
:1027B000206801688A4216D1596C090702D45B6C03
:1027C0005B0706D5002301931368019353680193B7
:1027D000019B02F0F6FA01220549206802B0BDE82B
:1027E000104002F024BD02B010BD00BFC80600209A
:1027F000E006002010B54FF480510F4801F040FB77
:1028000001280CBF002301230C4C4FF400510A484F
:10281000237001F035FB01280CBF002301234FF486
:1028200080410548637001F02BFB01280CBF002399
:102830000123A37010BD00BF000C0140E206002080
:10284000B0F5005F0AD0B0F5804F0AD0B0F5805FD8
:1028500002D10322044B1A70FFF7CCBF0222024BB5
:10286000F9E70122004BF6E7E10600200022034BC6
:102870001B685A625A6A8242FCD37047C403002024
:102880002DE9F04304464FF003081E4600250127BA
:1028900085B0BDF830906360228108462160A4F8BD
:1028A0000A90694684F815800092CDE90175CDF84B
:1028B0000C8001F00BFA69463046CDE90157CDF89E
:1028C0000C80CDF8009001F001FA3A462189206889
:1028D00001F0DCFA0A2000F0FDFA2A46218920687E
:1028E00001F0D4FA0A2000F0F5FA0522034B1D602E
:1028F000034B1A6005B0BDE8F08300BF0807002055
:102900000007002070B50446182500260122218901
:10291000206801F0BBFA0120FFF7A8FF864061891B
:10292000606801F0ADFA002201282189206808BF03
:102930000136013D01F0AAFA0120FFF797FF15F0DB
:10294000FF05E3D1637DAB4207DC16F4000F14BF33
:102950004FF07F400020304470BD01222189206863
:1029600001F094FA0120FFF781FF002220682189FD
:1029700001F08CFA0120FFF779FF0544E2E7418975
:1029800008B5406801F07CFAB0FA80F0400908BD53
:1029900070B500F099FA04461148FFF7F0FF114EA8
:1029A000E0B13368104DE31A052B09D90C48FFF745
:1029B000A9FF0E4A1368034413602B6801332B6090
:1029C0000B4B29681B68994208D3084A1368B3FB6C
:1029D000F1F308490B6000232B601360346070BD75
:1029E000E80600200C070020100700200807002040
:1029F0000007002004070020024630B501444AF2D7
:102A000001054FF6FF708A4200D130BD082412F84C
:102A1000013B584000F00103400813B180EA050370
:102A200098B2631E13F0FF04F4D1ECE770B564268E
:102A3000254BC425DE7102269D711E729D739D7506
:102A400057263125DE73DD75012204260525002178
:102A5000802406201A701E7403221D76E026C525E8
:102A600019711973197519775A709A70DC70587149
:102A70005A729A72DC7258735A749A74DC7458756C
:102A80005A769A76DC7658779D77DE7783F8202021
:102A900083F8212083F82220862283F8234083F8BC
:102AA000241083F8250083F8265083F82720074B4D
:102AB0000748198001F096FDBDE870404FF4807220
:102AC0000449054802F0C4BB400800203E0800202D
:102AD0007C0300203D07002054040020036810B54B
:102AE000B3F1804F11D1094C094920784FF0FF33E1
:102AF00001EBC0010822074802F015F923780133E1
:102B0000DBB2042B88BF0023237010BD68080020AF
:102B100040080020540400200268074B9A420AD162
:102B20000122064B06481980064B07491A704FF4DC
:102B3000807202F08DBB7047004400403E080020C8
:102B4000540400203C0700203D070020062970B5F2
:102B500005460C4639D90678013EF3B2042B34D829
:102B6000023989B2FFF748FF2C4414F8012C14F8FD
:102B7000023C43EA0223834227D16B78032B24D102
:102B8000AB780C2B21D1B5F80B0040BA84B2E4B974
:102B9000D5F8030000BAC0F31400FEF72BF80C4977
:102BA000FEF734F90B49FDF773FF0B4B43F8260092
:102BB000B5F80D00C0BAFEF721F80849FEF772F823
:102BC000074B43F82600204670BD4FF0FF30FBE76F
:102BD000610BB6450000344314070020B37B923EDE
:102BE0002807002038B5084B1A785AB10025074C41
:102BF0001D7023889BB22BB12188054889B2FFF74D
:102C0000A5FF258038BD00BF3C0700203E080020FE
:102C10003D07002030B50024144A154D136885B0D7
:102C2000013313602B6801941A68284601925A6890
:102C30000192019A02941A6802925A680292029AC8
:102C400003941A6803925B680393039B02F0B9F83C
:102C5000084B0122084928461C7002F0E8FA00F0EF
:102C600033F9064B186005B030BD00BF7008002076
:102C70009C040020A5080020A40800208008002053
:102C800010B500240A4B1C800A4B1C700A4B1C70A8
:102C900000F01AF9094B01221860094B09491C8000
:102CA000094B0A481C70BDE8104002F0C0BA00BFD2
:102CB000A60800207C080020A5080020800800202D
:102CC0006A080020A40800206C0800209C04002052
:102CD000F8B500F0F9F8284D04462B68C31AB3F58F
:102CE0007A7F01D9FFF796FF244A254B117851B11D
:102CF0002968641A052C06D911782248018001211F
:102D00001970002111701A7862B300271E4A1F70D3
:102D100013681C4D013313602B889BB213B32988B1
:102D200089B206291CD9194C2378062B18D163784F
:102D3000032B15D1A378022B12D1631813F8012CA1
:102D400013F8026C0239204689B246EA0226FFF7E0
:102D500053FE864204D1E3780D4AFF2B03D117704E
:102D600000232B80F8BDB4F803300A495BBA0B800E
:102D700001231370F4E700BF80080020A50800209D
:102D80007C080020A6080020740800208408002089
:102D90006C0800206A080020114A08B51368013346
:102DA000136000F091F80F4B18600F4B1A781F2A30
:102DB00011D819784A1CD2B21A700C4B1A780C4BE5
:102DC0005A54012209490B4802F031FA30B1BDE8EA
:102DD0000840FFF71FBF00221A70F2E708BD00BFCE
:102DE0007808002080080020A5080020A408002002
:102DF000840800209C040020FEF7EEFB0B480C49E1
:102E00000C4A002302E0D458C4500433C4188C4246
:102E1000F9D3094A094C002301E013600432A242AD
:102E2000FBD302F0EDFFFEF7CDFA70470000002063
:102E300078020020947F0008780200201C0A0020FD
:102E4000FEE7000038B50E4B05461A784FF47A734A
:102E5000B3FBF2F30B4A1068B0FBF3F000F0CCFCCC
:102E6000044658B90F2D09D8024629464FF0FF30C5
:102E700000F084FC2046044B1D6038BD0120FCE7B7
:102E8000AA00002000000020AC000020074A08B57E
:102E90001368032043F01003136000F05DFC0F2063
:102EA000FFF7D0FFFEF7D6FA002008BD0020024051
:102EB000034A044B11681B780B441360704700BF32
:102EC000A8080020AA000020014B1868704700BF26
:102ED000A808002038B50446FFF7F6FF0546631C36
:102EE0001EBF044B1B78E418FFF7EEFF431BA34201
:102EF000FAD338BDAA000020002373B5019390F8DF
:102F000024300446012B6CD0012380F824304D6816
:102F10000268062D086805EB850322D81F26556B2D
:102F2000053B9E4025EA060500FA03F32B43536355
:102F300009288B6800EB40054FF0070129D9D668B6
:102F40001E3DA94026EA0101AB400B43D360A0F12E
:102F50001003012B25D90020002384F8243002B06F
:102F600070BD0C2D4FF01F0509D8166B233B9D40FB
:102F700026EA050500FA03F32B431363D8E7D66A64
:102F8000413B9D4026EA050500FA03F32B43D3623B
:102F9000CEE71069A94020EA0101AB400B43136161
:102FA000D9E7114B9A4216D193681B02D3D4936888
:102FB000102843F400039360CDD10C4B0C4A1B68DE
:102FC000B3FBF2F30A2253430193019B002BC2D0BF
:102FD000019B013BF8E7A36A012043F02003A362B1
:102FE000BAE70220BBE700BF002401400000002038
:102FF00040420F0038B5036804469A68D10701D4EF
:10300000002038BD9A6822F001029A60FFF75CFF49
:10301000054623689B68DB07F2D5FFF755FF401B89
:103020000228F6D923689B68DA07F2D5A36A012043
:1030300043F01003A362E36A43F00103E362E0E7B5
:10304000F8B5044600286DD0836A23B9C36280F8BE
:103050002430FEF73BF82046FFF7CCFFA36A13F0BD
:10306000100361D100285FD1A26A616822F48852FE
:1030700022F0020242F00202E569A668A262227B07
:103080002943B6F5807F41EA420136D0771E7D4262
:103090007D412D02277D012F06D182BBA269013A15
:1030A00045EA423242F400652268B6F5807F5768EF
:1030B00027F4694745EA0705556097681D4D05EAFD
:1030C000070545EA0105956001D0012E02D123696B
:1030D000013B1B05D56A25F470052B43D36292682A
:1030E000154B1340994213D10023E362A36A23F0E6
:1030F000030343F00103A362F8BD3546CAE7A26AA1
:1031000042F02002A262E26A42F00102E262CBE7F0
:10311000A36A23F0120343F01003A362E36A43F0AF
:103120000103E3620120E7E7A36A43F01003A3620F
:10313000F8E700BFFDF7E1FFFE0E1FFF38B50446BC
:1031400000286ED090F820300BB9FEF72DF82268D9
:10315000136843F001031360FFF7B6FE05462368CA
:103160005A68D10751D51A6822F002021A60FFF797
:10317000ABFE054623685A68920754D4227E00208D
:10318000012A1A680CBF42F0800222F080021A6005
:10319000627E012A1A680CBF42F0400222F040020F
:1031A0001A60A27E012A1A680CBF42F0200222F0A7
:1031B00020021A60E27E012A1A680CBF22F0100277
:1031C00042F010021A60227F012A1A680CBF42F0F6
:1031D000080222F008021A60627F012A1A680CBFF6
:1031E00042F0040222F004021A60D4E902210A43E8
:1031F00021690A4361690A43616801390A43DA6156
:103200000123606284F8203038BDFFF75DFE401B6B
:103210000A28A4D9636A43F400336362052384F85F
:1032200020300120F0E7FFF74FFE401B0A28A1D90C
:10323000F0E770B590F820200368013A012A62D8BF
:103240000120D3F8002242F00102C3F800224A69AB
:10325000D3F81C5202F01F04A04025EA0005C3F871
:103260001C52CD69C44395BBD3F80C52CE6825409F
:10327000C3F80C528D8803EBC20245EA0645C2F83A
:1032800040528E680D8845EA0645C2F844528A6964
:103290007ABBD3F804222240C3F804220A6962BB35
:1032A000D3F814221440C3F814420A6A012A04BF56
:1032B000D3F81C2202434FF0000008BFC3F81C22C1
:1032C000D3F8002222F00102C3F8002270BD012DC4
:1032D000DDD1D3F80C520E680543C3F80C528D882B
:1032E00003EBC20245EA0645C2F840528E688D895A
:1032F000C9E7D3F804220243CEE7D3F814220243ED
:10330000C3F81422D1E7436A43F4802343620120C7
:10331000DCE770B590F820300446012BDDB220D1F7
:103320000223026880F82030136823F00103136041
:10333000FFF7CAFD064623685B6813F0010302D15C
:103340001D4663620BE0FFF7BFFD801B0A28F2D920
:10335000636A43F400336362052384F8203028460F
:1033600070BD436A012543F400234362F7E7F0B5DB
:10337000054690F820002E6801380128B4683CD832
:1033800014F0E05F4FF0010032D0C4F30164A040BC
:103390001860D1E9020704F1180310BB08681B018B
:1033A00047EA4057F750200106EB0413064400207B
:1033B0000D69C3F88451097D012902BFD3F8841136
:1033C00041F48071C3F884115168C6F88C111268F9
:1033D000C6F88821D3F8802142F00102C3F8802189
:1033E000F0BD4D68384340EAC5001B01F050DAE7F4
:1033F0006B6A43F400136B62F2E76B6A012043F4DB
:1034000080236B62ECE790F82030013B012B0CD855
:10341000036898689A689B681201C0F3806048BF8F
:103420000130DB0002D50130704700207047F0B555
:103430000446084694F820100139012971D82668FD
:1034400040B9F168890707D1636A43F4001301208A
:1034500063625AE03169F5E706EB0015D5F8B07103
:10346000010107F004079760002F4FD1D5F8B07124
:103470007F0D1760D5F8B0710E4407F00207D760D2
:10348000D5F8B4713F074EBF0827D5F8B47107F0DF
:103490000F071761D5F8B471D5F8B451C7F30727F2
:1034A0002D0C97615561D6F8B8211A7022680A442C
:1034B000D2F8B821120A5A7022680A44D2F8B82108
:1034C000120C9A7022680A44D2F8B821120EDA70EF
:1034D00022680A44D2F8BC211A7122680A44D2F840
:1034E000BC21120A5A7122680A44D2F8BC21120C7B
:1034F0009A7122680A44D2F8BC21120EDA7123684C
:1035000048B9DA6842F02002DA60F0BDD5F8B0714F
:10351000FF085760AEE71A69002042F020021A61E6
:10352000F3E7636A43F4802391E790F82030013B8E
:10353000012B05D802680020536919435161704777
:10354000436A43F480234362012070477047704709
:103550007047704770477047704770472DE9F84FC4
:10356000036805465E69D3F8049016F001049F686D
:10357000D3F80CB0D3F810A0D3F8188022D017F0ED
:10358000010407D00122B9079A6040F1A580FEF737
:10359000F9FE0024FB0509D54FF480722B68B805AD
:1035A0009A6040F1A7802846FEF7EFFEFB0309D59D
:1035B0004FF480322B68B8039A6040F1A980284606
:1035C000FEF7E5FE330707D51BF0100F1FBF1022D3
:1035D0002B6844F40074DA60770708D51BF0080FF5
:1035E00005D008222B682846DA60FFF7B2FFB00743
:1035F00006D52B68DB68990702D02846FEF784FEC3
:10360000720607D51AF0100F1FBF10222B6844F462
:1036100080641A61B30608D51AF0080F05D0082295
:103620002B6828461A61FFF795FFF70606D52B6829
:103630001B69980702D02846FEF770FEB10308D533
:1036400019F0100F05D010222B6828465A60FFF79A
:1036500082FFF20308D519F0080F05D008222B6865
:1036600028465A60FFF778FF33042CD519F0040F71
:103670002A6826D0F70504D518F0010F18BF44F0CA
:103680000104B00504D518F0020F18BF44F002047D
:10369000710504D518F0040F18BF44F00404330575
:1036A0000FD518F070030CD0402B4FD03ED8202BF4
:1036B00046D0302B47D0102B3FD0936923F07003B6
:1036C0009361042353602CB16B6A284623436B62D9
:1036D000FFF743FFBDE8F88F7A0705D417F0080419
:1036E00005D1FFF733FF55E74FF4006452E74FF47D
:1036F00080544FE7790502D544F4005456E73A0563
:1037000002D544F4804451E72846FFF720FF4DE7F7
:10371000790302D544F4004454E73A0302D544F453
:1037200080344FE72846FFF713FF4BE7502B10D0AC
:10373000602BC2D144F48074BFE744F00804BCE7B6
:1037400044F01004B9E744F02004B6E744F0400424
:10375000B3E744F08004B0E707490302CA6803F402
:10376000E06322F4E0621204120C134343F0BF63DF
:1037700043F40033CB60704700ED00E0154B30B5EB
:10378000DC68C4F30224C4F10703251D042B28BF01
:103790000423062D4FF0FF3594BF0024033C05FAA7
:1037A00003F321EA0303A54022EA0502A34000280F
:1037B00043EA0203ACBF00F16040074A4FEA03133B
:1037C000DBB2ABBF00F5614000F00F0080F80033C2
:1037D000135430BD00ED00E014ED00E0002807DBDD
:1037E00001234109034A00F01F00834042F82130C1
:1037F000704700BF00E100E00138B0F1807F0BD2DC
:103800004FF0E023F021054A586182F82310002090
:10381000072298611A6170470120704700ED00E0AF
:10382000034610B540B314210068144A0244B2FBA9
:10383000F1F292001A64124ADA63022283F821201C
:10384000D3E901242243DC68016822431C6921F486
:103850007F5122435C6921F0300122439C6922435D
:10386000DC6922430A43026000200122986383F846
:10387000200083F8212010BD0120FCE7F8FFFDBFE8
:103880000000024090F821200346022A06D00422BC
:1038900082630120002283F8202070470268C06BF9
:1038A000116821F00E011160116821F00101116011
:1038B00001211A6C01FA02F24260002083F8211003
:1038C000E8E7000010B590F82130022B03D0042364
:1038D0008363012010BD03681A6822F00E021A608B
:1038E0001A6822F001021A60184A93421FD014325B
:1038F00093421ED0143293421DD0143293421DD0F5
:10390000143293421DD0143293420CBF4FF48013F3
:103910004FF080730E4A00245360012380F8213059
:10392000436B80F820407BB198472046D2E70123C3
:10393000F0E71023EEE74FF48073EBE74FF480538A
:10394000E8E74FF48033E5E71846C3E70800024094
:103950000000024070B40425C66B026C3468036832
:1039600095402542196832D04D0730D51A68960621
:103970005EBF1A6822F004021A603E4A934219D0D0
:103980001432934218D01432934217D01432934217
:1039900017D01432934217D0143293420CBF4FF415
:1039A00080034FF08063344A5360C36A002B5ED0BB
:1039B00070BC18470423F6E74023F4E74FF4806314
:1039C000F1E74FF48043EEE74FF48023EBE7022565
:1039D0009540254235D08D0733D51A68940606D414
:1039E0001A6822F00A021A60012280F82120214A76
:1039F000934219D01432934218D01432934217D004
:103A00001432934217D01432934217D01432934297
:103A10000CBF4FF400134FF00073174A536000239C
:103A200080F82030836AC1E70223F6E72023F4E719
:103A30004FF40073F1E74FF40053EEE74FF4003317
:103A4000EBE708259540254211D009070FD51968E5
:103A500021F00E011960012303FA02F27260836300
:103A600080F82130002380F82030036B9EE770BC83
:103A7000704700BF0800024000000240806B7047A2
:103A8000114AD36813F0100305D01049CB6943F0F5
:103A90000203CB611023D268500706D50B4943F0CF
:103AA0000403CA6942F00102CA61074AD169C90721
:103AB00008D50648C16941F00401C161D16921F00E
:103AC0000101D161D360704700200240B00800209E
:103AD000064B186910F0800007D0054A5A6002F1C1
:103AE00088325A601869C0F3C01070470020024045
:103AF00023016745034A0020136943F080031361E3
:103B0000704700BF0020024070B50546FFF7DCF9A2
:103B10000646114CE368D80712D4E368990644BFFF
:103B20002023E360E368DA0606D4E369DB0703D405
:103B3000E06810F0040007D0FFF7A2FF012003E0C7
:103B40006B1CE7D00DB9032070BDFFF7BDF9801BDA
:103B5000A842DFD9F7E700BF002002402DE9F84F67
:103B6000DFF894A01F469AF818300546012B8846C6
:103B700091463FD001234CF250308AF81830FFF7BD
:103B8000C3FF90BB012D03D0022D0CBF02250425DD
:103B900000263346DFF864B03401C4F12001A4F1FB
:103BA000200207FA01F129FA04F4CAF81C300C4388
:103BB00027FA02F21443DBF81020A4B242F001020B
:103BC000CBF810204CF2503028F81640FFF79CFF3D
:103BD000DBF8102022F00102CBF8102028B90136C2
:103BE000F2B295424FF00003D6D800238AF818307D
:103BF000BDE8F88F0220FBE7B0080020002002405B
:103C00000022064BDA61064B1A6942F002021A6181
:103C100058611A6942F040021A617047B0080020EA
:103C2000002002402DE9F041264F05463B7E8846A4
:103C3000012B44D001243C7603684CF25030022B17
:103C40001AD1FFF761FF20B1012000233B76BDE8C8
:103C5000F0811D4CF86123694CF2503043F00403AD
:103C60002361236943F040032361FFF74DFF23697C
:103C700023F004032361E8E7FFF746FF0028E3D1C0
:103C80004FF0FF33C8F800302046AE680E4CD5E93F
:103C9000023203EB8223B342D7D93046FFF7B0FF9D
:103CA0004CF25030FFF730FF236923F00203236109
:103CB00010B1C8F80060C8E706F58066E7E70220A3
:103CC000C5E700BFB0080020002002402DE9F74FF3
:103CD00000221646644F654BDFF894C1DFF894E18B
:103CE0000D6835FA06F402D103B0BDE8F08F4FF04D
:103CF000010808FA06F805EA080438EA05057AD149
:103D00004D68032D07D8013D022D00F28780DFE8C2
:103D100005F0959AA000122D00F098806DD8112D15
:103D200000F08E80FF2C98BF82464FF00F0988BFAD
:103D300000F1040A4FEA8605DAF8008088BF203DCA
:103D400009FA05FB28EA0B0802FA05F548EA050519
:103D5000CAF80050D1F804A01AF0805F4BD0BD69BA
:103D600026F0030845F00105BD61BD6908F18048F2
:103D700005F00105019508F5803806F0030B019D5B
:103D80004FEA8B0BD8F8085009FA0BF925EA090914
:103D9000394DA84261D005F58065A8425FD005F590
:103DA0008065A8425DD005F58065A8420CBF03255B
:103DB000042505FA0BF545EA0905C8F808509D6881
:103DC0001AF4801F14BF2543A5439D60DD681AF4D3
:103DD000001F14BF2543A543DD605D681AF4003F52
:103DE00014BF2543A5435D601D681AF4803F14BFCE
:103DF0002543A5431D60013672E7DFF880904D45ED
:103E00000CD017D8A9F580194D4507D009F57029B0
:103E10004D4503D0A9F580194D4583D18A68D2B1AB
:103E2000012A08BFC0F810804FF0080218BFC0F880
:103E3000148077E76545F1D07545EEE7CA6871E70C
:103E4000CA6804326EE7CA6808326BE7CA680C3287
:103E500068E7002266E7042264E70025A9E7012558
:103E6000A7E70225A5E700BF0010024000040140BB
:103E70000000311000003210000801400000221044
:103E80008368194214BF0120002070470AB1016104
:103E900070470904FBE7C36801EA030221EA030152
:103EA00041EA024101617047044A08B55169014283
:103EB00002D05061FEF7C4FC08BD00BF0004014001
:103EC0002DE9F341054638B30368DB0710D42B68AE
:103ED0009F075ED42B68190700F195802B685A075D
:103EE00000F1C180E869002840F02C81002029E021
:103EF000904C636803F00C03042B07D0636803F055
:103F00000C03082B0AD16368DE0307D523689C03E2
:103F1000DDD56B68002BDAD1012013E06B68B3F5B7
:103F2000803F12D1236843F480332360FEF7CCFF37
:103F3000064623689803CAD4FEF7C6FF801B642890
:103F4000F7D9032002B0BDE8F0819BB9236823F4C0
:103F500080332360236823F480232360FEF7B4FFBB
:103F6000064623689903B2D5FEF7AEFF801B64288E
:103F7000F7D9E6E7B3F5A02F236803D143F48023F4
:103F80002360CFE723F480332360236823F4802366
:103F9000CBE7684C636813F00C0F07D0636803F03D
:103FA0000C03082B10D16368DA030DD423689B0738
:103FB00002D52B69012BAFD123686A6923F0F8037E
:103FC00043EAC203236085E72A695B4B6AB1012299
:103FD0001A60FEF779FF064623689F07ECD4FEF7C8
:103FE00073FF801B0228F7D9ABE71A60FEF76CFF5E
:103FF0000646236898077FF56DAFFEF765FF801BC7
:104000000228F6D99DE7AA694A4E4B4BE2B101223C
:10401000C3F88024FEF758FF0446736A9B070DD54A
:104020004FF4FA52454B1B68B3FBF2F3019300BF08
:10403000019B5A1E0192002BF9D14FE7FEF744FF76
:10404000001B0228E9D97CE7C3F88024FEF73CFF77
:104050000446736A9F077FF541AFFEF735FF001BEB
:104060000228F6D96DE7334CE369D80024D4012740
:10407000E36943F08053E361E36903F08053009305
:10408000009B2F4E3368D90518D5EB68012B26D13C
:10409000236A43F001032362FEF716FF41F28838DA
:1040A0000646236A9B073FD5002F3FF41BAFE36909
:1040B00023F08053E36115E70027E2E7336843F418
:1040C00080733360FEF700FF80463368DA05DCD486
:1040D000FEF7FAFEA0EB08006428F6D931E7ABB989
:1040E000236A41F2883823F001032362236A23F014
:1040F00004032362FEF7E8FE0646236A9807D3D539
:10410000FEF7E2FE801B4045F7D91AE7052B236A2C
:1041100003D143F004032362BAE723F001032362CF
:10412000236A23F00403B6E7FEF7CEFE801B40456A
:10413000B7D906E70010024000004242000000200C
:10414000007000402A4C636803F00C03082B3ED03B
:104150000022284B02281A662CD1FEF7B5FE06462F
:104160002368990120D42B6AB3F5803F05D162689A
:10417000A96822F400320A436260696A62680B43EC
:1041800022F474121343012263601A4B1A66FEF77D
:104190009BFE054623689A013FF5A8AEFEF794FE04
:1041A000401B0228F6D9CCE6FEF78EFE801B0228C3
:1041B000D6D9C6E6FEF788FE054623689B017FF543
:1041C00095AEFEF781FE401B0228F6D9B9E601281C
:1041D0003FF4B8AE63682A6A03F4803191427FF4F9
:1041E0009BAE6A6A03F4701393423FF47FAE93E68A
:1041F00000100240000042420D4A536803F00C01D7
:10420000082912D10B48C3F38341DB03405C09D575
:104210005368094AC3F340435043084AD35CB0FB98
:10422000F3F07047064B584370470348704700BF90
:1042300000100240087C000800127A00187C000878
:1042400000093D002DE9F0410D46044610B901205A
:10425000BDE8F081444A136803F007038B4228D37A
:1042600021688E0730D4CA0743D43F4A136803F04D
:104270000703AB4265D822683C4D12F0040F6CD1A5
:10428000130706D56B68226923F4605343EAC2031F
:104290006B60FFF7B1FF6B68354AC3F30313D35C60
:1042A000D840344B1860344B1868FEF7CBFD002023
:1042B000CEE7136823F007030B431360136803F082
:1042C00007038B42C3D1CBE7284B11F0040F1EBF6D
:1042D0005A6842F4E0625A60080742BF5A6842F4E2
:1042E00060525A605A68A06822F0F00202435A6095
:1042F000B9E762681D4E012A33681AD113F4003FF2
:10430000A5D0736841F2883823F003031343736028
:10431000FEF7DAFD07467368626803F00C03B3EB3F
:10432000820FA2D0FEF7D0FDC01B4045F3D9032079
:104330008EE7022A02D113F0007FE1E713F0020FAB
:10434000DEE7136823F007032B431360136803F0C1
:104350000703AB427FF47BAF8DE76B68E16823F422
:10436000E0630B436B608BE70020024000100240CB
:10437000F07B000800000020AC000020044B054A40
:104380005B68C3F30223D35C034A1068D8407047CC
:1043900000100240007C000800000020044B054A89
:1043A0005B68C3F3C223D35C034A1068D8407047EC
:1043B00000100240007C00080000002003682DE986
:1043C000F341D907054621D5364CE369DA0033D4E9
:1043D0000126E36943F08053E361E36903F080530E
:1043E0000193019B304F3B68DB0527D5236A6A6840
:1043F00013F4407336D1236A6A6823F4407313437D
:1044000023621EB1E36923F08053E36128688307C8
:1044100006D52449AB684A6822F440421A434A60F0
:1044200010F010001BD01F4AE9685368002023F4E5
:1044300080030B43536012E00026D3E73B6843F44C
:1044400080733B60FEF740FD80463B68D805CDD4C5
:10445000FEF73AFDA0EB08006428F6D9032002B06D
:10446000BDE8F08102F440729A42C4D001200F4AA4
:10447000236AC2F84004002023F44071C2F84004CB
:104480002162D907B7D5FEF71FFD41F288380746EC
:10449000236A9A07AFD4FEF717FDC01B4045F7D932
:1044A000DCE700BF00100240007000400000424204
:1044B000036A026A70B522F00102026244688269EE
:1044C0000D6822F073022A438D6823F002032B4308
:1044D0000A4DA8420BD1CD6823F008032B4324F4E6
:1044E0004074D1E90556354323F004032C4344605E
:1044F00082614A684263036270BD00BF002C0140C4
:10450000036A026A70B522F4807202624468C2696A
:104510000D6822F073022A438D6823F4007343EA86
:1045200005230B4DA8420DD1CD6823F4006343EA67
:10453000052324F44054D1E90556354323F4806320
:1045400044EA05144460C2614A68C263036270BDF4
:10455000002C0140036A026A30B522F480520262E4
:104560004468C2690D6822F4E64242EA05228D6879
:1045700023F4005343EA0533064DA84202BF4D69B8
:1045800024F4804444EA85144460C2614A680264A9
:10459000036230BD002C014090F83D30012B1CD14E
:1045A00002230F4A80F83D30036893420AD0B3F1EA
:1045B000804F07D0A2F59432934203D002F5806277
:1045C000934204D19A6802F00702062A03D01A68BF
:1045D00042F001021A60002070470120704700BFBE
:1045E000002C014090F83D30012B20D1022380F8AF
:1045F0003D300368DA6842F00102DA600D4A934206
:104600000AD0B3F1804F07D0A2F59432934203D081
:1046100002F58062934204D19A6802F00702062AEA
:1046200003D01A6842F001021A600020704701208E
:10463000704700BF002C01407047704770477047BB
:10464000036870B5DD681E690446B1070DD5AA0779
:104650000BD56FF002021A61012202779B699B075A
:1046600069D0FFF7EAFF00232377710710D56A07A7
:104670000ED56FF00402236820461A6102222277C9
:104680009B6913F4407F5CD0FFF7D7FF00232377AB
:1046900033070FD528070DD56FF008022368204691
:1046A0001A6104222277DB69990750D0FFF7C5FF12
:1046B00000232377F20610D5EB060ED56FF010021B
:1046C000236820461A6108222277DB6913F4407FB1
:1046D00043D0FFF7B2FF00232377F00708D5E9079F
:1046E00006D56FF00102236820461A61FEF7F6F93D
:1046F000320608D52B0606D56FF0800223682046C7
:104700001A6100F046FA700608D5690606D56FF002
:104710004002236820461A61FFF791FFB20622D5B6
:10472000AB0620D56FF0200223682046BDE870401C
:104730001A6100F02DBAFFF77FFF2046FFF77EFFDA
:1047400091E7FFF779FF2046FFF778FF9EE7FFF735
:1047500073FF2046FFF772FFAAE7FFF76DFF2046C1
:10476000FFF76CFFB7E770BD1E4A036890420AD09E
:10477000B0F1804F07D0A2F59432904203D002F5F9
:104780008062904215D14A6823F070031343154AA2
:1047900090420AD0B0F1804F07D0A2F594329042F7
:1047A00003D002F58062904203D1CA6823F44073BB
:1047B00013434A6923F08003134303608B68C36289
:1047C0000B688362074B984204BF0B6903630123A4
:1047D00043610369DB0742BF036923F001030361FF
:1047E000704700BF002C014010B5044630B390F86C
:1047F0003D3003F0FF021BB980F83C20FCF76EFF50
:104800000223206884F83D30211DFFF7ADFF01230E
:10481000002084F8463084F83E3084F83F3084F835
:10482000403084F8413084F8423084F8433084F8D2
:10483000443084F8453084F83D3010BD0120FCE759
:1048400010B5044630B390F83D3003F0FF021BB9B9
:1048500080F83C20FCF72EFF0223206884F83D30CE
:10486000211DFFF781FF0123002084F8463084F8E2
:104870003E3084F83F3084F8403084F8413084F88A
:10488000423084F8433084F8443084F8453084F86A
:104890003D3010BD0120FCE7036A026A70B522F0CA
:1048A00010020262446882690D6822F4E64242EA1C
:1048B00005228D6823F0200343EA05130B4DA8421F
:1048C0000DD1CD6823F0800343EA051324F440643E
:1048D000D1E90556354323F0400344EA850444609A
:1048E00082614A688263036270BD00BF002C014090
:1048F00070B590F83C300546012B50D00123082AB2
:1049000080F83C303BD007D8C2B1042A27D01846E3
:10491000002385F83C3070BD0C2AF8D10068FFF701
:1049200019FEC3690A6943F40063C361C36923F4D0
:104930008063C361C36943EA02232EE00068FFF786
:10494000B7FD83690A6943F008038361836923F033
:10495000040383618369134383610020D8E70068FF
:10496000FFF79AFF83690A6943F4006383618369EF
:1049700023F480638361836943EA0223ECE70068E0
:10498000FFF7BEFDC3690A6943F00803C361C36949
:1049900023F00403C361C3691343C361DDE702204D
:1049A000B9E710B584680A4324F47F4442EA03223D
:1049B0002243826010BD38B590F83C300446012B8C
:1049C0004FF0020000F08E80012284F83D00206844
:1049D00084F83C20836823F47F4323F077038360CB
:1049E0000B68602B4FD032D8402B64D016D8202BC8
:1049F0000DD00AD833F0100109D0012384F83D30DE
:104A0000002384F83C30104638BD302BF5D1826845
:104A100022F07002134343F0070328E0502BECD13F
:104A20004A68CD68016A036A21F00A0123F0010394
:104A3000036283690A4323F0F00343EA05138361A9
:104A40000262836823F0700343F057030FE0B3F56D
:104A5000805F0DD0B3F5005F0CD0702BCDD1CB684B
:104A6000D1E90121FFF79DFF836843F0770383605D
:104A70000022C2E7CB68D1E90121FFF792FF8368EA
:104A800043F48043F3E7036A026A4D6822F01002A0
:104A9000C9680262826923F0A00322F4704243EAEB
:104AA000051342EA013282610362836823F07003D6
:104AB00043F06703DBE74A68CD68016A036A21F0C7
:104AC0000A0123F00103036283690A4323F0F00320
:104AD00043EA051383610262836823F0700343F0A5
:104AE0004703C4E702468EE730B590F83C300246F3
:104AF000012B4FF0020022D0136882F83D005C6861
:104B00000D6824F070042C4398685C600C4CA34240
:104B10000AD0B3F1804F07D0A4F59434A34203D058
:104B200004F58064A34204D1496820F08000014369
:104B300099600123002082F83D3082F83C0030BDAE
:104B4000002C014090F83C300246012B1ED0CB686F
:104B5000886823F440730343486823F48063034365
:104B6000086823F400630343086923F48053034374
:104B7000486923F4005303430020C96923F48043A8
:104B80000B4311684B6482F83C0070470220704769
:104B900070477047026802F10C0353E8003F23F4AA
:104BA00090730C3242E8003102680029F2D102F120
:104BB000140353E8003F23F0010302F1140C4CE806
:104BC00000310029F3D1036B012B0BD102F10C034F
:104BD00053E8003F23F0100302F10C0C4CE80031C5
:104BE0000029F3D1202380F842300023036370476B
:104BF00010B504460368C1681A6922F440520A439A
:104C00001A6182680069D9680243606921F4B05171
:104C100021F00C0102430A43DA605A69A16922F4C7
:104C200040720A435A610E4A934215D1FFF7B6FB10
:104C300019234343626820689200B3FBF2F36422B5
:104C4000B3FBF2F102FB11331B013233B3FBF2F37E
:104C500003EB0113836010BDFFF790FBE8E700BF93
:104C600000380140F7B505460C4617461E462A682F
:104C7000136834EA030301D1002021E0701CF7D04F
:104C8000FEF722F9C01B86421CD3DEB12B68DA681E
:104C90005107ECD5802CEAD0402CE8D01A681207D6
:104CA000E5D5002401941A68284601925B680193B7
:104CB000019BFFF76FFF082301206B6485F84040DC
:104CC00003B0F0BD0320FBE710B5044648B390F8ED
:104CD000413003F0FF021BB980F84020FCF704FECE
:104CE0002423226884F84130D368204623F40053FB
:104CF000D360FFF77DFF236800201A6922F49042F9
:104D00001A615A6922F02A025A61DA6842F40052A2
:104D1000DA602023606484F8413084F842306063B4
:104D200010BD0120FCE72DE9F843994690F8413089
:104D30000446202B0E4617463FD100293FD0002ABB
:104D40003DD021230025456480F84130FEF7BCF8B2
:104D5000A3688046B3F5805FA784E78403D1236905
:104D60000BB935461E46E38C9BB25BB94B464246B7
:104D700040212046FFF776FF202384F8413058B9C0
:104D8000BDE8F8834B46424680212046FFF76AFF84
:104D900020B1202384F841300320F1E722684EB986
:104DA00035F8023BC3F308035360E18C013989B243
:104DB000E184D8E716F8013BF6E70220E0E701209E
:104DC000DEE710B50446226802F10C0353E8003F09
:104DD00023F4F0730C3242E8003123680029F2D149
:104DE00003F1140252E8002F22F0010203F1140033
:104DF00040E800210029F3D1226B012A0BD103F1F5
:104E00000C0252E8002F22F0100203F10C0040E8DF
:104E100000210029F3D15A6912061AD503F11402B0
:104E200052E8002F22F0800203F1140040E8002134
:104E30000029F3D1A06B60B14163FEF723FD40B1BF
:104E4000A06BFEF71BFE202803D110230320636410
:104E500010BD226853695B0616D502F1140353E8AE
:104E6000003F23F0400302F1140040E80031002924
:104E7000F3D1E06B40B14163FEF704FD20B1E06B7C
:104E8000FEF7FCFD2028E0D000202023E084E08510
:104E9000606484F8423084F841302063D8E770477A
:104EA00008B50023406AC385C384FDF77DFC08BDB7
:104EB00090F8423007B5222B42D18168836AB1F560
:104EC000805F02683FD1016900293FD15268C2F377
:104ED000080223F8022B8362C38D013B9BB2C3857A
:104EE000002B2DD10268D16821F02001D160D1685A
:104EF00021F48071D160516921F0010151612022BA
:104F000080F842204363026B012A026828D10363C0
:104F100002F10C0353E8003F23F0100302F10C0CE4
:104F20004CE800310029F3D11368DB0605D5019167
:104F30001368019353680193019B818DFDF7ECFD8C
:104F400003B05DF804FB39B9016929B95268D2B2DE
:104F50001A70836A0133BEE7526802F07F02F7E7F6
:104F6000FDF7FCFBECE70000036873B51A68044624
:104F70001607D9685D6908D1960668D58D0666D58D
:104F800002B0BDE87040FFF793BF05F0010001F4E7
:104F9000907505435BD0D60705D5CD0542BF636C40
:104FA00043F001036364530704D518B1636C43F005
:104FB00002036364960704D518B1636C43F00403DD
:104FC0006364150707D501F0200303431EBF636C1C
:104FD00043F008036364636C002B32D0920604D55F
:104FE0008B0602D52046FFF763FF266820467369CB
:104FF000626C03F0400302F0080253EA020522D07B
:10500000FFF7C8FD73695E0618D5226802F1140324
:1050100053E8003F23F04003143242E800310029F6
:10502000F3D1E06B50B1744B4363FEF74BFC40B1DE
:10503000E06B436B02B0BDE8704018472046FDF7B7
:10504000B3FB02B070BDFDF7AFFB6564F9E7206B01
:10505000012840F09480D50640F19180C80640F1C7
:105060008E80002201921A6801925A680192019A78
:105070005A6952064DD5E16B0A68526892B2002A0D
:10508000DFD0A08D9042DCD9E2858A69202A36D013
:1050900003F10C0252E8002F22F4807203F10C009D
:1050A00040E800210029F3D103F1140252E8002F57
:1050B00022F0010203F1140040E800210029F3D19D
:1050C00003F1140252E8002F22F0400203F1140011
:1050D00040E800210029F3D1202284F842202163F6
:1050E00003F10C0252E8002F22F0100203F10C0031
:1050F00040E800210029F3D1E06BFEF7C3FB022357
:105100006363E38DA18DC91A89B22046FDF704FDC2
:1051100097E7E28DE08DA18D80B292B2002890D009
:10512000891A89B200298CD003F10C0252E8002FB1
:1051300022F4907203F10C0545E800200028F3D119
:1051400003F1140252E8002F22F0010203F11405CA
:1051500045E800200028F3D1202284F84220206373
:1051600003F10C0252E8002F22F0100203F10C05AB
:1051700045E800200028F3D102236363C5E7160643
:1051800028D50D0626D594F84120212A7FF459AF61
:10519000A168226AB1F5805F17D12169A9B932F8F7
:1051A000021BC1F3080159602262E28C013A92B2FB
:1051B000E284002A7FF445AFDA6822F08002DA60E8
:1051C000DA6842F04002DA603BE7511C2162127853
:1051D0005A60EAE750067FF534AF4A067FF531AFF3
:1051E000DA68204622F04002DA60202384F8413059
:1051F000FFF755FE25E700BFA14E00080023C2853A
:10520000436422238285026980F842308162036808
:105210001AB1DA6842F48072DA605A69002042F00A
:1052200001025A61DA6842F02002DA60704770B415
:1052300090F84260202E06D141B13AB100240463B7
:1052400070BCFFF7DBBF022070BC70470120FBE79A
:1052500073B590F842600446202E24D111B9012084
:1052600002B070BD002AFAD0012303630023436318
:10527000FFF7C4FF0028F3D1236B012BEFD1226885
:1052800001901368019353680193019B02F10C0391
:1052900053E8003F43F0100302F10C0444E80031EE
:1052A0000029F3D1DCE70220DAE7002B2DE9F047F3
:1052B0001F46BBBF03F100431F4600232D2388B0C8
:1052C0001446129A109D1370149BDDF84CA023F025
:1052D0002008B8F1460F05D0B8F1450F00D10135CF
:1052E000022300E0032307AA049206AACDE902A242
:1052F000CDE9003522463B4600F042FEB8F1470FAB
:10530000064602D1119BDB0722D5B8F1460F06EB0A
:10531000050910D13378302B0AD100220023204612
:105320003946FBF741FB18B9C5F10105CAF8005031
:10533000DAF8003099440022002320463946FBF772
:1053400033FB08B1CDF81C903022079B4B4507D3A7
:105350003046079B159A9B1B136008B0BDE8F08789
:10536000591C07911A70F0E70346F7B5002903F8B6
:10537000022BB6BF2D222B224942092942702ADD79
:105380000DF1070217460A2691FBF6F5944606FB37
:10539000151430340CF8014C0C46632C294602F1EC
:1053A000FF32F1DC3031ACF1020402F8011C22467C
:1053B000411CBA420AD30DF10902A2EB0C02BC4215
:1053C00088BF00221344181A03B0F0BD12F8015B25
:1053D00001F8015FEDE7302330318370C170031DA8
:1053E000F1E700002DE9F04F91B00C46DDF8688040
:1053F00016461F46054600F0B3FC0368184609939D
:10540000FAF7A6FE00230E93D8F800300A9007336F
:1054100023F0070303F1080294F81890D4F800B0C1
:10542000C8F80020D3E900A852464346C4E9122335
:1054300028F000430B934FF0FF3250469C4B0B99E2
:10544000FBF7E4FA70BB4FF0FF325046984B0B99D4
:10545000FBF7BEFA30BB0022002350464146FBF763
:10546000ADFA10B12D2384F84330924A924BB9F132
:10547000470F94BF9046984603234FF0000A2361DC
:105480002BF00403236033462146284600970FAAD9
:1054900000F0D6F9013040F090804FF0FF3011B0AD
:1054A000BDE8F08F5246434650464146FBF7AEFA00
:1054B00048B1B8F1000FB8BF2D23804AB8BF84F8B7
:1054C00043307F4BD3E7636809F0DF015A1C42D1B8
:1054D00006236360002206920EAACDE904920DAA6B
:1054E0004BF4806303920DF13302CDE90132236066
:1054F000636852460093284643460B91FFF7D5FE5A
:105500000B99804647290D9908D1C81C02DB6368B6
:10551000994240DDA9F102095FFA89F9B9F1650FF5
:105520001FD84A46013904F150000D91FFF71CFFC6
:105530000E9A82461318012A236102DC2268D207E0
:1055400001D5013323619DF83330002B9BD02D23EF
:1055500084F8433097E74729BCD1002BBAD1012307
:10556000B7E7B9F1660F18D1002963680BDD216137
:1055700013B92268D00702D501330B4423614FF0E1
:10558000000AA165DFE713B92268D20701D502330B
:10559000F4E70123F2E74FF067090E9B994205DB20
:1055A00023682161D807EAD54B1CE7E70029CCBF67
:1055B0000122C1F102021344E0E723685A0507D42F
:1055C0002369424631462846B84701302BD164E76B
:1055D000B9F1650F40F2DD80D4E912010022002309
:1055E000FBF7E2F9002833D0012331462846354A3B
:1055F000B84701303FF451AFDDE90D239A4202DB99
:105600002368D8070FD5DDE9092331462846B84776
:1056100001303FF442AF4FF0000804F11A090E9B2D
:10562000013B434509DC23689B0700F10481E068E6
:105630000F9B9842B8BF184631E701234A463146CE
:105640002846B84701303FF428AF08F10108E6E7E3
:105650000D9B002B38DC012331462846194AB847F8
:1056600001303FF41AAFDDE90D32134302D1236854
:10567000D907D8D5DDE9092331462846B847013096
:105680003FF40BAF4FF0000904F11A0A0D9B5B4287
:105690004B4501DC0E9B94E70123524631462846D8
:1056A000B84701303FF4F9AE09F10109EEE700BF58
:1056B000FFFFEF7F1A7C00081E7C0008227C000898
:1056C000267C00082A7C00080E9AA36D9A42A8BF87
:1056D0001A46002A914637DC4FF0000B29EAE97997
:1056E00004F11A02D4F858A0AAEB09035B4533DC95
:1056F000DDE90D239A423BDB2368DA0738D4DDE984
:105700000D32A2EB0309A2EB0A029145A8BF914614
:10571000B9F1000F34DC4FF0000829EAE97904F10F
:105720001A0ADDE90D239B1AA3EB090343457FF712
:105730007AAF0123524631462846B84701303FF43C
:10574000ACAE08F10108ECE7134631464246284664
:10575000B8470130C0D1A0E60123314628460B925C
:10576000B84701303FF499AE0B9A0BF1010BB9E742
:105770003146DDE909232846B8470130BFD18CE620
:105780004B463146284608EB0A02B8470130C2D1E1
:1057900083E60E9A012A01DCDB0739D50123424654
:1057A00031462846B84701303FF477AEDDE909239A
:1057B00031462846B84701303FF46FAED4E91201B4
:1057C00000220023DDF83890FBF7EEF8D8B909F194
:1057D000FF3308F1010231462846B84701300ED1A7
:1057E0005BE601234A4631462846B84701303FF47C
:1057F00054AE08F101080E9B013B4345F1DC5346D2
:1058000004F15002DEE64FF0000804F11A09F2E755
:1058100001234246DFE701234A4631462846B8477E
:1058200001303FF43AAE08F10108E3680F995B1AC2
:105830004345F0DCFBE64FF0000804F11909F4E7FA
:105840002DE9F047164699468A680B690746934248
:10585000B8BF1346336091F843200C46DDF8208032
:105860000AB1013333602368990642BF33680233BB
:105870003360256815F0060506D104F1190AE368BE
:1058800032689B1AAB422BDC94F84320131E22682B
:1058900018BF0123920630D44946384604F143022A
:1058A000C047013023D02368226903F00603042B8C
:1058B00014BF002533684FF0000608BFE56804F107
:1058C0001A0408BFED1A54F8123C08BF25EAE57522
:1058D0009342C4BF9B1AED18B5421AD1002008E0CC
:1058E0000123524649463846C047013003D14FF0A4
:1058F000FF30BDE8F0870135C1E73020E11881F8BD
:1059000043005A1C94F845102244023382F8431095
:10591000C2E70123224649463846C0470130E6D057
:105920000136D9E72DE9FF470F7E9146782F804653
:105930000C469A460C9D01F1430207D8622F0AD803
:10594000002F00F0D580582F00F0C18004F14205EF
:1059500084F842703AE0A7F16303152BF6D801A151
:1059600051F823F0BD590008D15900084D590008DD
:105970004D5900084D5900084D590008D1590008EB
:105980004D5900084D5900084D5900084D5900085F
:10599000D75A0008FD590008915A00084D590008CF
:1059A0004D590008F95A00084D590008FD590008E2
:1059B0004D5900084D590008995A00082B681A1DC6
:1059C0001B682A6004F1420584F842300123A0E0FC
:1059D00020682B68070603F10401296001D51E68C1
:1059E00003E04606FBD5B3F90060002E03DA2D2351
:1059F000764284F843300A23594812E02B68206825
:105A0000191D2960050601D51E6802E04106FBD577
:105A10001E886F2F0CBF08230A235148002184F8E9
:105A200043106568002DA8BF2168A560A4BF21F0C0
:105A3000040121600EB9002D4BD01546B6FBF3F1E1
:105A400003FB1167C75D05F8017D3746BB420E4673
:105A5000F4D9082B0BD12368DE0708D523696168C8
:105A60009942DEBF302305F8013C05F1FF35521B9A
:105A700022614B4621464046CDF800A003AAFFF71D
:105A8000DFFE01304AD14FF0FF3004B0BDE8F087AF
:105A9000236843F0200323607827324884F8457058
:105AA000236829681F0651F8046B02D45F0648BFBB
:105AB000B6B2DF0748BF43F02003296048BF236028
:105AC0001EB9236823F0200323601023A6E724488F
:105AD000E4E71546BDE72B682668181D6169286054
